:100000000C94E2050C940A060C940A060C940A0659
:100010000C940A060C940A060C940A060C940A0620
:100020000C940A060C940A060C94EF0D0C945E0EC8
:100030000C940A060C940A060C940A060C940A0600
:100040000C940A060C940A060C940A060C940A06F0
:100050000C940A060C940A060C940A060C94901050
:100060000C940A060C940A060C940A060C940A06D0
:100070000C940A060C940A060C940A060C940A06C0
:100080000C940A060C940A060C940A060C940A06B0
:100090000C940A060C940A060C940A060C940A06A0
:1000A0000C940A060C940A060C940A06FF818181BE
:1000B000818181FF18284F814F2818001814F28180
:1000C0004F28180000000000000000FF1E214182A0
:1000D00041211E00FFF191FD85FF81FF7C8383ABF1
:1000E00093837C00FC8393BB9383FC000000060990
:1000F000F90600003060300003060300FFD5ABD5E1
:10010000ABD5ABFF00000000003E5B4F5B3E3E6B9B
:100110004F6B3E1C3E7C3E1C183C7E3C181C577DA1
:10012000571C1C5E7F5E1C00183C1800FFE7C3E7ED
:10013000FF0018241800FFE7DBE7FF30483A060EFF
:100140002629792926407F050507407F05253F5A46
:100150003CE73C5A7F3E1C1C08081C1C3E7F1422B6
:100160007F22145F5F005F5F06097F017F00668961
:10017000956A606060606094A2FFA29408047E04A7
:100180000810207E201008082A1C08081C2A0808CD
:100190001E101010100C1E0C1E0C30383E3830068D
:1001A0000E3E0E06000000000000005F0000000789
:1001B000000700147F147F14242A7F2A12231308B7
:1001C000646236495620500008070300001C224193
:1001D000000041221C002A1C7F1C2A08083E080837
:1001E00000807030000808080808000060600020E7
:1001F000100804023E5149453E00427F40007249CA
:100200004949462141494D331814127F102745456D
:1002100045393C4A49493141211109073649494983
:1002200036464949291E00001400000040340000F1
:10023000000814224114141414140041221408025A
:10024000015909063E415D594E7C1211127C7F49CD
:100250004949363E414141227F4141413E7F494922
:1002600049417F090909013E414151737F0808084E
:100270007F00417F41002040413F017F081422411F
:100280007F404040407F021C027F7F0408107F3E79
:100290004141413E7F090909063E4151215E7F09E6
:1002A000192946264949493203017F01033F40404D
:1002B000403F1F2040201F3F4038403F6314081438
:1002C0006303047804036159494D43007F41414170
:1002D0000204081020004141417F04020102044051
:1002E00040404040000307080020545478407F28D5
:1002F0004444383844444428384444287F385454CB
:10030000541800087E090218A4A49C787F080404ED
:100310007800447D40002040403D007F102844008C
:1003200000417F40007C047804787C08040478381D
:1003300044444438FC1824241818242418FC7C084D
:10034000040408485454542404043F44243C4040CA
:10035000207C1C2040201C3C4030403C442810287D
:10036000444C9090907C4464544C440008364100C6
:100370000000770000004136080002010204023C40
:100380002623263C1EA1A161123A4040207A38540F
:10039000545559215555794121545478412155548A
:1003A000784020545579400C1E52721239555555DB
:1003B00059395454545939555454580000457C41C6
:1003C0000002457D420001457C40F0292429F0F0DF
:1003D000282528F07C545545002054547C547C0A30
:1003E000097F4932494949323248484832324A48FD
:1003F00048303A4141217A3A42402078009DA0A0FD
:100400007D39444444393D4040403D3C24FF242450
:10041000487E4943662B2FFC2F2BFF0929F620C06D
:10042000887E090320545479410000447D413048BE
:10043000484A32384040227A007A0A0A727D0D1901
:10044000317D2629292F28262929292630484D4063
:1004500020380808080808080808382F10C8ACBA5F
:100460002F102834FA00007B000008142A142222DE
:10047000142A14089500220095AA005500AAAA552E
:10048000AA55AA000000FF00101010FF0014141459
:10049000FF001010FF00FF1010F010F0141414FCF7
:1004A000001414F700FF0000FF00FF1414F404FC14
:1004B000141417101F10101F101F1414141F0010F5
:1004C0001010F0000000001F101010101F1010106E
:1004D00010F010000000FF1010101010101010107D
:1004E000FF10000000FF140000FF00FF00001F10BD
:1004F000170000FC04F414141710171414F404F477
:100500000000FF00F714141414141414F700F71467
:100510001414171410101F101F141414F4141010B6
:10052000F010F000001F101F0000001F140000005A
:10053000FC140000F010F01010FF10FF141414FF52
:10054000141010101F00000000F010FFFFFFFFFF4D
:10055000F0F0F0F0F0FFFFFF0000000000FFFF0FE1
:100560000F0F0F0F38444438447C2A2A3E147E0271
:10057000020606027E027E02635549416338444406
:100580003C04407E201E2006027E020299A5E7A5BB
:10059000991C2A492A1C4C7201724C304A4D4D302C
:1005A0003048784830BC625A463D3E494949007E51
:1005B0000101017E2A2A2A2A2A44445F44444051E8
:1005C0004A444040444A51400000FF0103E080FF9C
:1005D000000008086B6B083612362436060F090F28
:1005E00006000018180000001010003040FF010144
:1005F000001F01011E00191D1712003C3C3C3C006D
:1006000000000000F0F89C8E8783878E9CF8F00035
:1006100000FEFF0303030303070EFCF80000FEFFC8
:100620000303030303070EFCF80000FFFF000000B4
:1006300000000000FFFF0000FEFF8383838383C769
:10064000EE7C380000F8FC0E07030303070EFCF8ED
:1006500000003F7FE0C08080C0E07F3FFFFF0101DE
:100660000101010101FFFF0000FFFF0C0C0C0C1C3D
:100670003E77E3C100007FFFC0C0C0C0C0E0703F54
:100680001F00001F3F70E0C0C0C0E0703F1F0000AF
:100690007FFFC1C1C1C1C1E3773E1C00001F3F7095
:1006A000E0C0C0C0E0703F1F000000000001FFFF7D
:1006B00001000000D5F08D14A1C881CFD9F1AF2081
:1006C0000032303233204A59554A59554E00505263
:1006D00045535320410000000000000000FC04F4DA
:1006E0009494949494949C00FC04F414141414F4BE
:1006F00004FC00FC04F414142428C810F000FC04CA
:10070000F494949494F404FC00FC04FC00000000B5
:1007100000001C14F404F4141C001C14F404F4145D
:100720001C00FC04F49494949494949C00000000A5
:1007300000000000000000000000000000000000B9
:1007400000000000000000000000000000000000A9
:100750000000000000000000000000000073727242
:10076000727272727E7E7F007F7E7F707070707F8B
:100770007E7F007F7E7F707078383F1E1F007F7EF7
:100780007E020202027E7E7F007F7E7F707070702C
:10079000700070707F7E7F70700000007F7E7F0031
:1007A00000007F7E7E7272727272727300000000AF
:1007B0000000000000000000000000000000000039
:1007C0000000000000000000000000000000000029
:1007D0000000000000000000000000000000000019
:1007E0000000000000000000000000000000000009
:1007F00000000000000000000000000000000000F9
:1008000000000000000000000000000000000000E8
:1008100000000000000000000000000000000000D8
:1008200000000000000000000000000000000000C8
:1008300000000000000000000000000000000000B8
:1008400000000000000000000000000000000000A8
:100850000000000000000000000000000000000098
:100860000000000000000000000000000000000088
:100870000000000000000000000000000000000078
:100880000000000000000000000000000000000068
:100890000000000000000000000000000000000058
:1008A0000000000000000000000000000000000048
:1008B0000000000000000000000000000000000038
:1008C0000000000000000000000000000000000028
:1008D0000000000000000000000000000000000018
:1008E00000000000CC340A0A0A0A0A34CC000000D6
:1008F00000000000000000E0A02040800000000098
:1009000000000000000000000000000000000000E7
:1009100000000000000000000000000000000000D7
:1009200000000000000000000000000000000000C7
:1009300000000000000000000000000000000000B7
:1009400000000000000000000000000000000000A7
:100950000000000000000000000000000000000097
:1009600000008040BF40C0C2C7424020BF90D04876
:10097000A864B452B266CF5DDF4FA650AF0000004E
:100980000000000000000000000000000000000067
:100990000000000000000000000000000000000057
:1009A0000000000000000000000000000000000047
:1009B0000000000000000000000000000000000037
:1009C0000000000000000000000000000000000027
:1009D0000000000000000000000000000000B068FF
:1009E000A864B6532A592D142A160B150A050A05B0
:1009F00002010201020102010201000000000000E8
:100A000000000000000000000000000000000000E6
:100A100000000000000000000000000000000000D6
:100A200000000000000000000000000000000000C6
:100A300000000000000000000000000000000000B6
:100A400000000000000000000000000000000000A6
:100A50000000000000000000000000000000000195
:100A60000000000000000000000000000000000086
:100A70000000000000000000000000000000000076
:100A80000000000000000000000000000000000066
:100A90000000000000000000000000000000000056
:100AA0000000000000000000000000000000000046
:100AB0000000000000000000000000000000000036
:100AC0000000000000000000000000000000000026
:100AD00000000000000047414D45204F56455200A0
:100AE000083E7FFFFFBE08000808083E59A9D9BE8E
:100AF00008000208010400000000020702000000D4
:100B00000000040402050200000000000808CEB343
:100B10008F838FB3CE00DEFFFFFFFFFFEE000808DC
:100B200000DEBF939F93EE00CEFFFFFFFFFFCE00DE
:100B30000808DEBF9F9F9FBFDE00EEFFFFFFFFFFA5
:100B4000CE00080800EE939F93BFDE00080B000262
:100B50000202000009040000010202000005240056
:100B600010010524010101042402060524060001E8
:100B70000705810310004009040100020A0000007B
:100B8000070502024000000705830240000004033D
:100B9000090412010002EF020140412336800001E6
:100BA0000102030141726475696E6F204C4C430071
:100BB00041726475696E6F204C656F6E6172646F0F
:100BC00000000D1111241FBECFEFDAE0DEBFCDBF54
:100BD00011E0A0E0B1E0E8EBF7E302C005900D9270
:100BE000AA34B107D9F726E0AAE4B1E001C01D920A
:100BF000AA34B207E1F715E0C2EED5E004C02197B0
:100C0000FE010E94D41BC13ED107C9F70E942A11E0
:100C10000C94DA1B0C94000080E0E6EFF1E0811107
:100C20008FEF002481938193819381930394D1F773
:100C30000895E6EFF1E0A0E0B8E000800EBC81117D
:100C4000012C1197A0FDFDCF0192B9F70DB40895C5
:100C50002F923F924F925F926F927F928F929F92CC
:100C6000AF92BF92CF92DF92EF92FF920F931F93BA
:100C7000CF93DF9330E0F901E80FF91F1E161F062E
:100C80000CF098C0803891050CF094C0FB01E00F87
:100C9000F11D1E161F060CF08DC0603471050CF09E
:100CA00089C0DB0177FF04C0AA27BB27A61BB70BAF
:100CB000A770BB27EB0177FD2796E3E0D595C79595
:100CC000EA95E1F777FF07C0219768E070E0FB0144
:100CD000EA1BFB0BDF01069506950695602E712C2D
:100CE0007A01AE015695542F442757954795480FE2
:100CF000591F4A505E4FBE01E8E0F0E02F014A1A4A
:100D00005B0A6F3FFFEF7F070CF444C06C0110E0FB
:100D100000E04A01F0E88F0E911CD7FC2EC06F3F17
:100D2000760709F45AC0F701E00FF11FE4915A0168
:100D3000A00EB11EF0E01F010A2E01C0220C0A9481
:100D4000EAF7F5013080232820821097B1F0673050
:100D5000710599F0F701E00FF11FE4915401A00E25
:100D6000B11EF0E01F01042C02C0359427940A94B0
:100D7000E2F7F5013080232820820F5F1F4FFFEF3D
:100D8000CF1ADF0A021713072CF4E0E8CE16D104BD
:100D900009F0C3CF6F5F7F4FE20EF31E40585F4FE5
:100DA000FB01EC1BFD0BE615F70524F4683071051B
:100DB00009F0A7CFDF91CF911F910F91FF90EF9096
:100DC000DF90CF90BF90AF909F908F907F906F906B
:100DD0005F904F903F902F900895109709F0BACFF1
:100DE000CCCF4F925F927F928F929F92AF92BF92A1
:100DF000CF92DF92EF92FF920F931F93CF93DF93E7
:100E0000DC014115510509F4B9C0FA01F49031969D
:100E1000E491CF2DD0E08E01080F191F1016110696
:100E20000CF0ACC0803891050CF0A8C0CB018E0F3F
:100E3000911D181619060CF0A1C0603471050CF054
:100E40009DC0F62FF7707F2ECB0177FD0796F3E05C
:100E500095958795FA95E1F7F82F77FF04C07720ED
:100E600011F0FFEFF80F662777276A1B7B0BB7FDA2
:100E700002C070E060E080E8882E8A1A0038110510
:100E80000CF48F2C861A0F2F0F2E000C110BE02E56
:100E9000E094FF3F0CF0E12C91E08E2F877009F475
:100EA00090E0E695E695E6959E0F090F111D093035
:100EB000110514F098E09F1B9E2C9F0E092D10E841
:100EC000010360011124AC0DBD1DA60FB71FFE9CD0
:100ED000600D711D11244E5F5F4F460F571F072D88
:100EE000072C000C110B260F371F9F0F991509F4C3
:100EF00045C0BD016A507E4F7B01D12CC12CC81466
:100F0000A8F5F901EC0DFD1D649170E0002E02C002
:100F1000660F771F0A94E2F760957095FA01EC0D61
:100F2000FD1DE491F0E02F01002E02C0440C551C81
:100F30000A94E2F797FC05C0F70180818623842993
:100F40008083772061F0F6E0F9154CF0570180E8D6
:100F5000A80EB11CF5018081872385298083FFEFCE
:100F6000CF1ADF0A6FEFE61AF60AC9CF93944C0F37
:100F70005D1F2C0F3D1FA058BF4FB8CFDF91CF9101
:100F80001F910F91FF90EF90DF90CF90BF90AF90A7
:100F90009F908F907F905F904F900895FC0180917B
:100FA000F501882311F13FB7F89482E08093E900BE
:100FB0002091F200822F90E01816190614F481E0B7
:100FC00090E0882339F0289844E64093F40140915A
:100FD000F1004083222339F02091F200211103C057
:100FE0002BE62093E8003FBF08958FEF9FEF089511
:100FF0002FB7F89483E08093E9009091E800892F5F
:10100000807295FF04C09091F20080E4891B2FBF8D
:1010100008958091EC0181110DC082E08093E80178
:1010200084E08093E9011092EB011092EA0181E0E3
:101030008093EC0188EE91E00895CF93DF931F92A7
:10104000CDB7DEB76983DC01ED91FC910280F381BD
:10105000E02D41E050E0BE016F5F7F4F09950F909A
:10106000DF91CF91089583E08093E9008091F200B1
:10107000882319F08AE38093E80008950E94F80716
:1010800090E00895CF93DF931F92CDB7DEB7FC01B8
:101090008485958597FD08C02FEF3FEF358724871E
:1010A0000F90DF91CF910895CE0101960E94CE0757
:1010B000019719F4898190E0F3CF8FEF9FEFF0CF84
:1010C0000F931F93CF93DF931F92CDB7DEB78C01A1
:1010D000FC018485958597FF0BC0CE0101960E9487
:1010E000CE07019771F4898190E0F8019587848794
:1010F000F801848595850F90DF91CF911F910F9115
:1011000008958FEF9FEFF1CFFC018485958597FDC2
:101110000BC09FB7F89482E08093E9008091F200C1
:101120009FBF90E0019608959FB7F89482E0809366
:10113000E9008091F2009FBF90E008954091E201A4
:101140005091E3012091E0013091E10142175307F2
:10115000B4F49091E8009570E1F39091E80092FD6D
:1011600019C08093F1008091E2019091E301019612
:101170008F739927892B19F48EEF8093E800809163
:10118000E2019091E30101969093E3018093E201E3
:1011900081E0089580E00895DF92EF92FF920F932F
:1011A0001F93CF93DF93D82E8A01EB017B01E40ECE
:1011B000F51ECE15DF0559F0D7FE12C0FE01849151
:1011C0000E949E0821968111F4CF0FEF1FEFC801F6
:1011D000DF91CF911F910F91FF90EF90DF900895D5
:1011E0008881EECF0F931F93CF93DF931F92CDB7DC
:1011F000DEB782E0898342E450E06CE47BE080E883
:101200000E94CC080E940908DC0112960D911C91E5
:101210000115110589F0D801ED91FC910280F3814F
:10122000E02DBE016F5F7F4FC801099597FD04C097
:10123000F80100851185ECCF89810F90DF91CF9166
:101240001F910F910895615030F02091F100FC0141
:1012500020830196F8CF289884E68093F4010895BE
:101260003FB7F8948091DC019091DD01A091DE01FF
:10127000B091DF0126B5A89B05C02F3F19F001965C
:10128000A11DB11D3FBFBA2FA92F982F8827BC01E0
:10129000CD01620F711D811D911D42E0660F771F08
:1012A000881F991F4A95D1F708958F929F92AF9208
:1012B000BF92CF92DF92EF92FF926B017C010E946E
:1012C00030094B015C01C114D104E104F104B9F00F
:1012D0000E943009681979098A099B09683E7340A0
:1012E0008105910580F321E0C21AD108E108F108D7
:1012F00088EE880E83E0981EA11CB11CE4CFFF90FD
:10130000EF90DF90CF90BF90AF909F908F90089517
:101310008F929F92AF92BF92CF92DF92EF92FF9205
:101320000F931F93CF93DF936C017B018A01809110
:101330002001882309F45CC08091F501882309F419
:1013400057C08091E70180FF05C08091E000826076
:101350008093E000E801B12C8AEFA82E93E0892E5B
:101360002AE3922E209711F4BB20D9F10E94F807AE
:1013700081110AC0AA94AA20D9F161E070E080E04E
:1013800090E00E945509EECF8C171D0611F00CF06D
:101390008C2F9FB7F8948092E9002091E80025FDFA
:1013A00002C09FBFDFCF282F30E0C21BD30BF70155
:1013B000815020F041914093F100FACFE20EF31EEC
:1013C000BB2021F09092E800B12CEBCF8091E80097
:1013D00085FDE7CF9092E800BB24B394209709F3F2
:1013E000F3CF5D9884E68093E601101611063CF079
:1013F00081E090E0F6019383828310E000E0C80171
:10140000DF91CF911F910F91FF90EF90DF90CF90E0
:10141000BF90AF909F908F900895AF92BF92CF9260
:10142000DF92EF92FF920F931F93CF93DF936C01A4
:101430007B018B01040F151FEB015E01AE18BF0885
:10144000C017D10759F06991D601ED91FC91019037
:10145000F081E02DC6010995892B79F7C501DF914F
:10146000CF911F910F91FF90EF90DF90CF90BF90A1
:10147000AF9008952D9A0895BC0190E080E00C94FF
:1014800055098FB18095807F669B88601C9B846026
:101490000895AF92BF92CF92DF92EF92FF920F9397
:1014A0001F93CF93DF936D3079F0C0915201D091AB
:1014B00053016A30B1F410925101109250012896F4
:1014C000D0935301C093520181E090E0DF91CF911E
:1014D0001F910F91FF90EF90DF90CF90BF90AF9052
:1014E0000895409150015091510185E0689FF001AD
:1014F0001124EC5FFE4F9A01C12C80E1E82EA5E09B
:1015000070E0CA1621F0CF0101967491FC0110E041
:1015100000E0B72FB170DB2E20383105D0F4CE01BA
:10152000800F911F80349105A0F461E081FD64E09B
:1015300080FD660F82FD6295887FE89ED0011124B0
:10154000A20FF62EAA50BE4F8C91DD20A9F0862B5B
:101550008C9376950F5F1F4F08301105D1F6C39419
:101560002F5F3F4F86E0C812CACF4A5F5F4F50934C
:10157000510140935001A8CFF0948F21E9CF0F93F0
:101580001F93CF93DF938C01D0E0C0E0F801EC0F04
:10159000FD1F6491662341F086E496E00E94490AAB
:1015A000892B11F02196F2CFCE01DF91CF911F91BF
:1015B0000F910895CF93C82F0E94410A982F9C2322
:1015C00081E09C1380E0CF91089580E00C9419068F
:1015D000089590E080E008958F929F92AF92BF921D
:1015E0000F931F93CF93DF93CDB7DEB7A1970FB6BD
:1015F000F894DEBF0FBECDBF19A2423008F44AE016
:101600008E010F5D1F4F842E912CB12CA12CA501B2
:1016100094010E94A31BE62FB901CA01EA3044F5E8
:10162000E05DD801EE938D01232B242B252B79F738
:1016300090E080E0109769F0FD0101900020E9F74B
:101640003197AF014A1B5B0BBD0186E496E00E9417
:101650000D0AA1960FB6F894DEBF0FBECDBFDF9185
:10166000CF911F910F91BF90AF909F908F90089551
:10167000E95CD7CFCF92DF92EF92FF920F93CF9397
:10168000DF93D0E0C0E0CE018B589E4F6C01F12C6F
:10169000E12CF60181916F0108E028E04CEF50E069
:1016A000843101F108E028E044EF50E08331D1F0CB
:1016B00095EF980F08E028E04CEE50E0943090F061
:1016C00008E028E044EE50E0873061F008E028E0D0
:1016D0004CED50E0883031F0813041F408E028E0F2
:1016E00044ED50E0B701CE010E942806F8E0EF0E6D
:1016F000F11C80E4E816F10461F62896C036D105A5
:1017000011F6ADE6EA2EA1E0FA2EF70181917F01F4
:1017100095EF980F08E028E04CEE50E0943060F030
:1017200008E028E044EE50E0873031F0883049F49A
:1017300008E028E04CED50E060E170E0CE010E944E
:1017400028062896C038D10501F7C0E0809106012F
:10175000C817A4F48C2F0C2E000C990B0C9608E0E3
:1017600028E04CEC50E070E060E0F3E0880F991F57
:10177000FA95E1F70E942806CF5FE8CFD0E0C0E0FD
:1017800008E028E044EC50E0BE0188E590E00E94CB
:1017900028062896C034D10599F7E09171010E2EE4
:1017A000000CFF0BE359FE4FC08185EF8C0F843096
:1017B000E0F4F12C0C2E000CDD0B2A978F2D0F2C52
:1017C000000C990B8C179D0784F40C9608E028E018
:1017D0004CEB50E068E070E0E3E0880F991FEA9579
:1017E000E1F70E942806F394E9CF08E028E044EBF3
:1017F00050E068E270E080E690E00E94280688E60B
:1018000090E0909351018093500188E290E0909392
:10181000530180935201C0904E01D0904F010D2C86
:10182000000CEE08FF084AE0C701B601F7FE0DC044
:101830006DE286E496E00E94490A66277727CB018D
:101840006C197D098E099F094AE00E94EC0A80917B
:101850007101082E000C990B0C9608E028E04CEA68
:1018600050E060E170E033E0880F991F3A95E1F7AE
:101870000E942806DF91CF910F91FF90EF90DF90AB
:10188000CF9008950C945B1B2F923F924F925F92E2
:101890006F927F928F929F92AF92BF92CF92DF9280
:1018A000EF92FF920F931F93CF93DF938AE0809381
:1018B0000B018093050180914E0190914F0101969B
:1018C00090934F0180934E0145E7242E41E0342E42
:1018D0005CE0D52E65E0862E912CA12CB12C74E114
:1018E000472E512C612C712CE4E1CE2E10E000E04B
:1018F0000E94031B2AE030E040E050E00E94711B90
:101900007101E00EF11E672B682B692B09F028C1CD
:10191000F701C0820F5F1F4F0830110549F7DA94B5
:10192000F8E02F0E311CD110E1CF0E94031B4B01B8
:101930005C010E94031B28E030E040E050E00E9480
:10194000711B6B01C501B4012CE030E040E050E0B8
:101950000E94711B83E0660F771F8A95E1F76B5831
:101960007E4F6C0D7D1D81E0FB0180839CE0892E04
:10197000912CA12CB12C28E0C22ED12CE12CF12CE1
:101980000E94031BA50194010E94711B7093130117
:10199000609312010E94031BA70196010E94711B14
:1019A00070930D0160930C0120911201309113018D
:1019B00003E0220F331F0A95E1F72B583E4FF90140
:1019C000E60FF71F80818130D9F21082DCE0CD2E46
:1019D000D12CE12CF12C18E0812E912CA12CB12CD2
:1019E0000E94031BA70196010E94711B70930A01BC
:1019F000609309010E94031BA50194010E94711BC1
:101A00009B017093080160930701E0910901F09137
:101A10000A014091120150911301E417F50739F4BE
:101A200040910C0150910D0164177507C9F2C3E094
:101A3000EE0FFF1FCA95E1F7EB58FE4FE20FF31FC1
:101A40008081843109F41082ACE0CA2ED12CE12CC3
:101A5000F12CB8E08B2E912CA12CB12C0E94031BF1
:101A6000A70196010E94711B70930401609303010A
:101A70000E94031BA50194010E94711BEB0170934E
:101A800002016093010120910301309104016091F2
:101A900012017091130140910C0150910D01261714
:101AA000370719F4C417D507C9F2F3E0220F331F23
:101AB000FA95E1F7F901EB58FE4FEC0FFD1FA081FD
:101AC000A43109F4108283E0660F771F8A95E1F74D
:101AD000709313016093120193E0440F551F9A9580
:101AE000E1F750930D0140930C0140910901509191
:101AF0000A0163E0440F551F6A95E1F750930A010C
:101B000040930901409107015091080173E0440F8F
:101B1000551F7A95E1F750930801409307013093E0
:101B2000040120930301CE01E3E0880F991FEA9599
:101B3000E1F79093020180930101DF91CF911F9112
:101B40000F91FF90EF90DF90CF90BF90AF909F905C
:101B50008F907F906F905F904F903F902F9008955F
:101B60000E94031BA50194010E94711B672B682B27
:101B7000692B21F483E1F7018083CCCE0E94031B03
:101B8000A30192010E94711B6115710581059105E8
:101B900019F5C0914E01D0914F01D7FD279633E042
:101BA000D595C7953A95E1F7249641F00E94031B1D
:101BB0009E01DD0F440B550B0E94711B662331F013
:101BC000613041F0623019F468E001C06EE0F70165
:101BD0006083A0CE67E0FBCFF70110829BCE1F92FF
:101BE0000F920FB60F9211248F939F938091E10073
:101BF0009091E100937F9093E10083FF0FC01092DA
:101C0000E90091E09093EB001092EC0092E3909346
:101C1000ED001092F50198E09093F00082FF22C051
:101C200093E09093E9009091F200992319F09AE3E0
:101C30009093E8009091E601992341F09091E6019C
:101C400091509093E601911101C05D9A9091F40139
:101C5000992341F09091F40191509093F4019111E6
:101C600001C0289A84FF18C08091E2008E7E8160B6
:101C70008093E2008091E1008F7E8093E10080916B
:101C8000E7018E7E80618093E7019F918F910F9095
:101C90000FBE0F901F90189580FFF7CF8091E20044
:101CA0008E7E80618093E2008091E1008E7E809341
:101CB000E1008091E7018E7E8160E5CF1F920F9257
:101CC0000FB60F921124CF92DF92EF92FF920F93F3
:101CD0001F932F933F934F935F936F937F938F93B4
:101CE0009F93AF93BF93EF93FF93CF93DF93CDB7C2
:101CF000DEB76C97DEBFCDBF1092E9008091E8009F
:101D000083FF25C068E0CE0145960E94230982EF3B
:101D10008093E8008D8987FF39C09091E80090FF9B
:101D2000FCCF982F907609F034C19E894F89588D49
:101D30002F89F88C911131C0803861F58091E501CF
:101D40008093F1001092F1008EEF8093E8006C9682
:101D50000FB6F894DEBF0FBECDBFDF91CF91FF91DC
:101D6000EF91BF91AF919F918F917F916F915F9113
:101D70004F913F912F911F910F91FF90EF90DF9026
:101D8000CF900F900FBE0F901F9018959EEF9093DD
:101D9000E800C7CF1092F100D5CF913059F48111EE
:101DA000D3CF4130510581F68091E5018D7F80933D
:101DB000E501CACF933049F48111C6CF41305105B6
:101DC00019F68091E5018260F2CF953041F480915F
:101DD000E80080FFFCCF20682093E300B5CF963069
:101DE00009F0A9C00B8D1C8D22E01092E900109221
:101DF000E3011092E201F2122EC01092E101109262
:101E0000E0010E94F2081F8299E09983FA8291E032
:101E10009E8390EA98879AEF99872091E20130910A
:101E2000E301275F3F4F3C832B838D831092E900B2
:101E30001092E3011092E2011093E1010093E0019E
:101E400049E050E0BE016F5F7F4F80E00E94CC0808
:101E50000E94F20879CF1093E1010093E0010E9403
:101E60000908DC0112960D911C910115110509F468
:101E700051C1D801ED91FC910480F581E02DBE01A6
:101E80006B5E7F4FC8010995009709F03EC1F801CC
:101E900000851185EACFF3E0FF120EC08F898823F9
:101EA00009F440C0823061F440E860E180EB9BE0DF
:101EB0000E94DA10811148CF81E28093EB0047CF76
:101EC000813029F440E86BE084EA9BE0F1CF833075
:101ED00099F70E940908DC011296ED90FC908E01A2
:101EE0000F5F1F4F6801E114F10479F0D701ED9104
:101EF000FC910680F781E02DB801C7010995080F14
:101F0000111DF701E084F184EECFD8011C92F60197
:101F100001900020E9F73197BF016C197D0940E07D
:101F2000C601C6CF6EE87BE0FB01449150E080E83B
:101F30000E94CC0809CF973009F4BECF983021F425
:101F400081E08093F10000CF993009F0FDCE8370DD
:101F500009F0B2CFE6E2F1E081E031E096E32191D1
:101F6000222371F08093E9003093EB00DF01119799
:101F70002C912093EC009093ED008F5F873079F7E0
:101F80008EE78093EA001092EA008F898093F50132
:101F9000DBCE8B8D9C8D1092E9001092E3011092A4
:101FA000E2019093E1018093E001898D811192C05B
:101FB0008E899D89913A49F4813209F07DCF47E0BD
:101FC00050E069E171E080E0B3CF913209F074CF65
:101FD000833269F48F89988DB0E0A0E08093150179
:101FE00090931601A0931701B0931801ADCE8032E3
:101FF00069F48091E80082FFFCCF67E089E191E01D
:102000000E9423098BEF8093E8009ECE823209F074
:102010009BCE8F8980932001EEEFFFE7859194910D
:102020008B3F9C4D51F1E0E0F8E0809119019091D7
:102030001A01A0911B01B0911C01803B9440A105A5
:10204000B105F1F48091200180FD1AC0EE3F8AE0D5
:10205000F80789F587E797E791838083809160008F
:102060008093E40188E19BE00FB6F894A8958093F3
:1020700060000FBE9093600067CEEEEFFAE0D5CF20
:10208000808191818737974709F05ECEA89580912E
:1020900060008861809360008091E401809360001B
:1020A000EE3F2AE0F20789F08091FE0A9091FF0A44
:1020B0009183808349CE808191818737980751F23F
:1020C0009093FF0A8093FE0AC5CF1092FF0A1092E8
:1020D000FE0A3ACE0E940908DC0112960D911C916D
:1020E0000115110509F4E8CED801ED91FC9101909C
:1020F000F081E02DBE016B5E7F4FC8010995811113
:1021000023CEF80100851185EBCF181619060CF4C3
:102110001BCED2CEF1E0FF12BECE62E97BE004CF4F
:102120001F920F920FB60F9211242F933F938F930C
:102130009F93AF93BF938091D8019091D901A091C3
:10214000DA01B091DB013091D70123E0230F2D3765
:1021500058F50196A11DB11D2093D7018093D80198
:102160009093D901A093DA01B093DB018091DC0157
:102170009091DD01A091DE01B091DF010196A11DDA
:10218000B11D8093DC019093DD01A093DE01B0933B
:10219000DF01BF91AF919F918F913F912F910F9050
:1021A0000FBE0F901F90189526E8230F0296A11DD1
:1021B000B11DD2CFEF92FF920F931F93CF93DF9376
:1021C000F82E192FE62E042F81E0860F880F0E942B
:1021D0009E0883E00E949E08CF2DD12FEC0EFD2E8D
:1021E000F11CCE15DF05B9F007FF13C0FE01849185
:1021F0000E949E08182F80E00E949E08812321964D
:102200008111EFCFDF91CF911F910F91FF90EF9050
:1022100008958881EDCF81E0F5CFE6EFF5E01382F8
:10222000128288EE93E0A0E0B0E084839583A683D9
:10223000B78380E391E0918380838FEF9FEF958751
:102240008487E6E4F6E01382128282E491E09183CF
:1022500080830895CF93DF9300D0CDB7DEB7789415
:1022600084B5826084BD84B5816084BD85B582609B
:1022700085BD85B5816085BD80916E00816080934C
:102280006E001092810080918100826080938100B5
:1022900080918100816080938100809180008160C5
:1022A0008093800080919100826080939100809162
:1022B0009100816080939100809190008160809373
:1022C00090008091C10084608093C1008091C10022
:1022D00082608093C1008091C10081608093C100C1
:1022E0008091C30081608093C3008091C0008260B0
:1022F0008093C0008091C20081608093C200809171
:102300007A00846080937A0080917A008260809362
:102310007A0080917A00816080937A0080917A00BF
:10232000806880937A001092F5011092E501109276
:10233000E7018091D70081608093D70080EA809385
:10234000D80089B5806189BD89B5826089BD09B42D
:1023500000FEFDCF61E070E080E090E00E94550952
:102360008091D8008F7C80618093D8008091E000BC
:10237000807F8093E0008091E1008E7E8093E10079
:102380008DE08093E200559A209A81EC80937C0046
:1023900085B1806F85B984B1877E84B984B1876E39
:1023A00084B95E9A5F988AB1806D8AB9769A6E9880
:1023B00081B3806F81BB899880B38D7080BB80E5CD
:1023C0008CBD81E08DBD85E090E00E943C0A5F9A63
:1023D00085E090E00E943C0A5E985C98E4EBF6E0B1
:1023E00081EC96E024912EBD00000DB407FEFDCFD8
:1023F00031968E179F07B1F75C9A81E8809364004D
:10240000809165008160809365000E94E50A80E804
:102410000E94DA0A8823A9F05C9885EA8EBD000044
:102420000DB407FEFDCF5C9A2E982F982D988091C1
:10243000640080628093640081E083BF889513BE4E
:10244000FCCF84E00E94DA0A882309F448C02D9862
:1024500084E80E94DA0A8823E1F00E943A0A88ECB4
:1024600090E00E943C0A2F9882E090E00E945B1B63
:102470008F3F29F06FEF82E090E00E94631B84EFB2
:1024800091E00E943C0A2F9A84E80E94DA0A8111A6
:10249000FBCF84E10E94DA0A8823E1F00E943A0A25
:1024A00088EC90E00E943C0A2E9882E090E00E9426
:1024B0005B1B882329F060E082E090E00E94631BB0
:1024C00084EF91E00E943C0A2E9A84E10E94DA0A8D
:1024D0008111FBCF88EC90E00E943C0AB2CF0E94B1
:1024E0003A0A82E090E00E94420C882309F491C0ED
:1024F0003E9A3F9A81E090E00E94420C182F14709F
:1025000081FF10C011112E9821EF3FEF3A832983EC
:1025100080E40E94DA0A882309F47EC02E9A2F9A5A
:102520000E943A0A82E390E00E943C0A0E94410A1B
:102530008111F8CF0E940C061092530110925201A3
:102540001092510110925001809164008E7F80930F
:10255000640080917A00806480937A0080917A0090
:1025600086FDFCCF00917800109179000E9430091F
:10257000AB01BC01C801B0E0A0E0DC0199278827CD
:102580008C019D01040F151F261F371FC901B801BB
:10259000209164002160209364006115710581051C
:1025A000910511F00E94521B81E28093000152E0DC
:1025B000E52EF12C68E3862E912CCC24C394D12CEB
:1025C0009CE0292E9BE0392E28E2A22E2BE0B22E91
:1025D0003EE1432E3BE0532E46E1642E4BE0742E49
:1025E0002FB7F8948091D8019091D901A091DA0188
:1025F000B091DB012FBF20914C01222309F471C05F
:1026000010924C0180E090E0892B51F30E94000071
:10261000D4CF3E983F986ECF112331F089819A81B3
:10262000049711F42E9A2F9881E00E94190600E178
:1026300028E544E056E069817A8184E190E00E94D7
:1026400028060E94E50A8FE090E00E943C0AA981DA
:10265000BA811196BA83A983599709F059CF1123EA
:1026600011F02F9A2D9880E991E00E943C0A0E9477
:102670003A0A81E090E00E94420C80FF53CF8AE04A
:1026800090E00E94420C9FEF980F9E3F08F04ACFC7
:1026900022E330E0309351012093500128E330E0F1
:1026A00030935301209352010BE010E01A83098309
:1026B000682F86E496E00E94490A89819A810E94E7
:1026C000420C09811A810F5F1F4F1A830983013160
:1026D000110571F70E94E50A88EE93E00E943C0A1A
:1026E00021CF20914D01182F121B212F3091000175
:1026F000131748F42F5F231708F084CF81E083BFBE
:10270000889513BE7FCF11E010934C0180934D014B
:1027100080914A0190914B01019690934B018093D7
:102720004A010E940C06109253011092520110921D
:102730005101109250018091140181114EC60E94E6
:102740003A0B8091D60118161CF481508093D60163
:1027500080E20E94DA0A882309F44AC0209112011B
:1027600030911301121613060CF042C082E49BE074
:1027700090931101809310018AE39BE090930F01E5
:1027800080930E011092D501C90187709927892B7A
:1027900049F5C90103E0959587950A95E1F70197F9
:1027A00040910C0150910D01BA0157FF02C0695FC1
:1027B0007F4FB3E075956795BA95E1F713E0880F01
:1027C000991F1A95E1F78B589E4FFC01E60FF71FF2
:1027D000808184316CF447705527452B19F0818135
:1027E000843134F4215031093093130120931201C4
:1027F00080E80E94DA0A882309F452C020910C0173
:1028000030910D01121613060CF04AC080E39BE0D4
:102810009093110180931001B0920F01A0920E01CC
:1028200081E08093D501C90187709927892B91F5A3
:102830004091120150911301CA0157FD079663E0C0
:10284000959587956A95E1F7B901E3E075956795E8
:10285000EA95E1F761507109FC01A3E0EE0FFF1F5B
:10286000AA95E1F7EB58FE4FE60FF71FE081E43140
:10287000BCF447705527452B69F053E0880F991F2A
:102880005A95E1F783589E4F860F971FDC018C9174
:10289000843134F42150310930930D0120930C011F
:1028A00080E40E94DA0A882309F449C020911201C9
:1028B00030911301283531050CF041C050921101BF
:1028C0004092100170920F0160920E0182E080939D
:1028D000D501C90187709927892B59F5C90137FDA1
:1028E000079643E0959587954A95E1F701964091C3
:1028F0000C0150910D01BA0157FF02C0695F7F4F73
:1029000013E0759567951A95E1F703E0880F991F15
:102910000A95E1F78B589E4FFC01E60FF71F808167
:1029200084316CF447705527452B19F0818184312F
:1029300034F42F5F3F4F309313012093120180E155
:102940000E94DA0A882309F454C020910C013091C6
:102950000D01283331050CF04CC03092110120924A
:102960001001B0920F01A0920E0183E08093D50177
:10297000C90187709927892BB1F560911201709177
:102980001301CB0177FD0796B3E095958795BA952E
:10299000E1F7A90137FF02C0495F5F4FE3E05595BA
:1029A0004795EA95E1F74F5F5F4FFC01A3E0EE0F1B
:1029B000FF1FAA95E1F7EB58FE4FE40FF51FE081EA
:1029C000E431BCF467707727672B69F003E0880F68
:1029D000991F0A95E1F783589E4F840F951FFC01BC
:1029E0008081843134F42F5F3F4F30930D01209369
:1029F0000C01809174018F5F823009F40EC18093C5
:102A0000740188E00E94DA0A882309F445C08091A5
:102A10007301811141C0E09171010E2E000CFF0B7A
:102A200080917201E359FE4F813009F4108281E0F8
:102A300080937301808195EF980F943008F0FCC368
:102A400081508A3009F4B7C38083209112013091FC
:102A5000130180910C0190910D0140915B01509107
:102A60005C01452B09F0A9C32E5F3F4F30935601FF
:102A700020935501029690935801809357018091BD
:102A8000D501082E000C990B90935A01809359019F
:102A9000D0925C01C0925B0188E00E94DA0A811149
:102AA00002C01092730184E00E94DA0A882379F050
:102AB0008091720181110BC081E08093720180913D
:102AC00071018F5F843009F4C5C38093710184E084
:102AD0000E94DA0A811102C0109272011092540110
:102AE0001091540113300CF0F2C3B8E01B02C00186
:102AF0001124FC01EB5AFE4F26813781213031052C
:102B000009F0C6C3248135812115310509F0A5C31B
:102B1000208131812150310931832083FC01EB5A1E
:102B2000FE4F208131812D35310598F4428153814A
:102B30004D33510570F473E0559547957A95E1F75B
:102B4000287F2B583E4F240F351FF9012081243157
:102B50002CF0FC01EB5AFE4FF782E682FC01EB5AA7
:102B6000FE4F408151812091090130910A014217A5
:102B70005307DCF0285F3F4F24173507B4F042813C
:102B800053812091070130910801421753076CF0DF
:102B9000285F3F4F2417350744F020910B01213067
:102BA00021F4F782E68210920B01FC01EB5AFE4FF2
:102BB0004081518120910301309104014217530754
:102BC000DCF0285F3F4F24173507B4F04281538172
:102BD0002091010130910201421753076CF0285FE8
:102BE0003F4F2417350744F020910501213021F48F
:102BF000F782E68210920501FC01EB5AFE4F6281DA
:102C000073812AEF3AE042E05BE0808191810E948B
:102C1000F1061F5F1093540163CF109274018091ED
:102C20000B01813009F0B5C2E0911201F09113015E
:102C30002091090130910A018091070190910801CA
:102C4000E217F307A4F5121613068CF5A9014770D5
:102C50005527452B31F5D90113E0B595A7951A9560
:102C6000E1F71197AC0197FF02C0495F5F4F63E046
:102C7000559547956A95E1F773E0AA0FBB1F7A95C2
:102C8000E1F7AB58BE4FA40FB51F4C9144317CF413
:102C9000AC0147705527452B21F011964C914431DA
:102CA00034F42150310930930A01209309016091D5
:102CB0000C0170910D012091090130910A016817F2
:102CC00079070CF03FC018161906E4F5AC014770FF
:102CD0005527452B91F5A90137FF02C0495F5F4F8A
:102CE000B3E055954795BA95E1F78C01A3E01595AA
:102CF0000795AA95E1F701501109DA01AA0FBB1F48
:102D0000AA0FBB1FAA0FBB1FAB58BE4FA00FB11F0E
:102D1000AC91A431BCF4D901A770BB27AB2B69F0EF
:102D2000A3E0440F551FAA95E1F743585E4F400FAB
:102D3000511FDA014C9144312CF401979093080112
:102D40008093070180910701909108012E173F079A
:102D5000B4F5283531059CF5A90147705527452B59
:102D600041F5D90137FD179643E0B595A7954A95EA
:102D7000E1F71196AC0197FF02C0495F5F4F13E086
:102D8000559547951A95E1F703E0AA0FBB1F0A95E1
:102D9000E1F7AB58BE4FA40FB51F4C9144317CF402
:102DA000AC0147705527452B21F011964C914431C9
:102DB00034F42F5F3F4F30930A0120930901409173
:102DC000090150910A01861797070CF048C0883313
:102DD00091050CF044C09C0127703327232BD1F5BB
:102DE0009A0157FF02C0295F3F4FB3E03595279501
:102DF000BA95E1F7DC0197FD179613E0B595A79515
:102E00001A95E1F78D010F5F1F4F1A83098389011E
:102E1000A3E0000F111FAA95E1F70B581E4FA981DF
:102E2000BA810A0F1B1FD8011C911431C4F48A0106
:102E300007701127012B71F003E0220F331F0A9551
:102E4000E1F723583E4FA981BA81A20FB31F2C91FD
:102E500024312CF401969093080180930701CF014F
:102E60000896841795070CF1485F5F4F4E175F0770
:102E7000E4F080910701909108019B01285F3F4F8A
:102E80002817390794F008968617970774F08091F1
:102E9000D60181110AC080910601815080930601FC
:102EA000811173C181E0809314018091050181300B
:102EB00009F07AC14091090150910A012091030162
:102EC000309104018091010190910201BA01685F83
:102ED0007F4F62177307DCF0B901685F7F4F64179B
:102EE0007507ACF04091070150910801BA01685F85
:102EF0007F4F681779075CF0BC01685F7F4F6417EC
:102F000075072CF040910B01413009F47ACDE09126
:102F10001201F0911301E217F307A4F5121613063C
:102F20008CF5A90147705527452B31F5D90113E0E0
:102F3000B595A7951A95E1F71197AC0197FF02C0D7
:102F4000495F5F4F63E0559547956A95E1F773E0F8
:102F5000AA0FBB1F7A95E1F7AB58BE4FA40FB51F60
:102F60004C9144317CF4AC0147705527452B21F03E
:102F700011964C91443134F42150310930930401BD
:102F80002093030160910C0170910D0120910301C8
:102F900030910401681779070CF03FC01816190624
:102FA000E4F5AC0147705527452B91F5A90137FF92
:102FB00002C0495F5F4FB3E055954795BA95E1F779
:102FC0008C01A3E015950795AA95E1F70150110929
:102FD000DA01AA0FBB1FAA0FBB1FAA0FBB1FAB585A
:102FE000BE4FA00FB11FAC91A431BCF4D901A770A2
:102FF000BB27AB2B69F0A3E0440F551FAA95E1F75F
:1030000043585E4F400F511FDA014C9144312CF46C
:1030100001979093020180930101809101019091A9
:1030200002012E173F07B4F5283531059CF5A9019B
:1030300047705527452B41F5D90137FD179643E0D9
:10304000B595A7954A95E1F71196AC0197FF02C097
:10305000495F5F4F13E0559547951A95E1F703E0F7
:10306000AA0FBB1F0A95E1F7AB58BE4FA40FB51FBF
:103070004C9144317CF4AC0147705527452B21F02D
:1030800011964C91443134F42F5F3F4F309304013B
:103090002093030140910301509104018617970783
:1030A0000CF048C0883391050CF044C09C01277097
:1030B0003327232BD1F59A0157FF02C0295F3F4FD9
:1030C000B3E035952795BA95E1F7DC0197FD1796A2
:1030D00013E0B595A7951A95E1F78D010F5F1F4F86
:1030E0001A8309838901A3E0000F111FAA95E1F754
:1030F0000B581E4FA981BA810A0F1B1FD8011C91C2
:103100001431C4F48A0107701127012B71F0A3E078
:10311000220F331FAA95E1F723583E4FA981BA81A8
:10312000A20FB31F2C9124312CF40196909302012D
:1031300080930101CF010896841795070CF461CCA8
:10314000485F5F4F4E175F070CF45BCC8091010125
:10315000909102019B01285F3F4F281739070CF41B
:1031600050CC0896861797070CF44BCC8091D6016B
:10317000811147CC80910601815080930601811115
:103180000FC081E0809314013CCC8EE18093D60186
:103190008CCE82300CF489CE815080930B0185CE89
:1031A0008EE18093D6012DCC82300CF42ACC815054
:1031B0008093050126CC108248CC40916301509148
:1031C0006401452BC9F42E5F3F4F30935E0120937D
:1031D0005D0102969093600180935F018091D5011B
:1031E000082E000C990B9093620180936101D0929C
:1031F0006401C092630150CC40916B0150916C010D
:10320000452B09F049CC2E5F3F4F30936601209348
:103210006501029690936801809367018091D501C2
:10322000082E000C990B90936A0180936901D0924B
:103230006C01C0926B0130CC873029F4108284E09D
:103240008093060129CC883009F026CC10820E9498
:10325000440C22CC109271013ACC2130310539F462
:1032600022813381215031093383228357CC22308C
:10327000310529F4208131812F5F3F4F4DCC233020
:10328000310509F04BCC228133812F5F3F4FECCFCA
:10329000A901425051094830510508F0BACC2F5FBE
:1032A0003F4F2A30310581F037832683FC01EB5AEA
:1032B000FE4F6281738108E028E042EF5AE080818E
:1032C00091810E942806A5CC17821682EFCF20910B
:1032D000120130911301C901049697FD079663E02E
:1032E000959587956A95E1F740910C0150910D01F4
:1032F0009A012C5F3F4F37FF02C0295F3F4F43E0E9
:10330000359527954A95E1F753E0880F991F5A950F
:10331000E1F78B589E4FFC01E20FF31F8081813053
:10332000D9F50E94440C20910E0130910F0140917B
:1033300010015091110160910C0170910D0180916B
:103340001201909113010E94F10680910B01181651
:1033500074F4609107017091080120EE3AE048EEA4
:103360005AE08091090190910A010E94F106809132
:103370000501181674F4609101017091020120EEAC
:103380003AE048EE5AE080910301909104010E94D6
:10339000F1060E94E50A36C99BEF980F9E3018F699
:1033A00090916D01911104C080936D011082BBCF8B
:1033B00090916E01911103C080936E01F7CF9091AF
:1033C0006F01911103C080936F01F0CF9091700154
:1033D0009111A9CF80937001E9CF813009F05FC0CE
:1033E00008E210E0109351010093500120E130E019
:1033F000309353012093520186ED9AE00E94BF0A58
:103400000E943A0B20910E0130910F014091100162
:103410005091110160910C0170910D018091120188
:10342000909113010E94F10680910B01181674F41B
:10343000609107017091080120EE3AE048EE5AE0F1
:103440008091090190910A010E94F1068091050185
:10345000181674F4609101017091020120EE3AE0B7
:1034600048EE5AE080910301909104010E94F10618
:1034700088E00E94DA0A882351F08091730181115B
:1034800006C081E08093730182E08093140188E09C
:103490000E94DA0A81117DCF109273017ACF8230B7
:1034A00009F077CF00E420E846ED56E070E060E0F8
:1034B00090E080E00E942806909251018092500195
:1034C00080E290E090935301809352018EEC96E05D
:1034D0000E94BF0A9092510180925001A0E3B0E097
:1034E000B0935301A093520181EC96E00E94BF0A71
:1034F00088E00E94DA0A882351F2809173018111D9
:10350000C6CF10937301109214010E94440CE0E4A2
:10351000F0E0F0931301E093120100E210E0109349
:103520000D0100930C0110924F0110924E01109268
:10353000D50184E0809306011092D60110930A0110
:103540000093090110930801009307018CE3809315
:103550000B01109274018EE080936D0110926E0148
:1035600010926F01109270010E94440C90CF8F92C4
:103570009F92AF92BF92CF92DF92EF92FF92CF9342
:10358000DF93EC01688179818A819B8161157105E6
:103590008105910521F464E279ED8BE597E02DE159
:1035A00033EF41E050E00E94711B49015A019B0139
:1035B000AC01A7EAB1E40E94901B6B017C01ACEE68
:1035C000B4EFA50194010E949E1BC60ED71EE81EF3
:1035D000F91EF7FE06C081E0C81AD108E10880E8AC
:1035E000F80AC882D982EA82FB82C701B6019F77B6
:1035F000DF91CF91FF90EF90DF90CF90BF90AF9091
:103600009F908F9008958F929F92AF92BF92CF928A
:10361000DF92EF92FF9260912101709122018091DF
:10362000230190912401611571058105910521F413
:1036300064E279ED8BE597E02DE133EF41E050E076
:103640000E94711B49015A019B01AC01A7EAB1E438
:103650000E94901B6B017C01ACEEB4EFA5019401BC
:103660000E949E1BC60ED71EE81EF91EF7FE06C05E
:1036700081E0C81AD108E10880E8F80AC092210167
:10368000D0922201E0922301F0922401C701B601F9
:103690009F77FF90EF90DF90CF90BF90AF909F907B
:1036A0008F900895609321017093220180932301EC
:1036B000909324010895F999FECF92BD81BDF89AA7
:1036C000992780B50895262FF999FECF1FBA92BD8C
:1036D00081BD20BD0FB6F894FA9AF99A0FBE0196F3
:1036E0000895052E97FB1EF400940E94881B57FD39
:1036F00007D00E94A31B07FC03D04EF40C94881B38
:1037000050954095309521953F4F4F4F5F4F08950D
:1037100090958095709561957F4F8F4F9F4F08953D
:103720000E94C51BA59F900DB49F900DA49F800D76
:10373000911D11240895B7FF0C94901B0E94901BBB
:10374000821B930B0895A1E21A2EAA1BBB1BFD013D
:103750000DC0AA1FBB1FEE1FFF1FA217B307E40770
:10376000F50720F0A21BB30BE40BF50B661F771FC8
:10377000881F991F1A9469F76095709580959095A8
:103780009B01AC01BD01CF010895A29FB001B39F81
:10379000C001A39F700D811D1124911DB29F700D5A
:1037A000811D1124911D0895EE0FFF1F0590F491C6
:0837B000E02D0994F894FFCF0D
:1037B80010200020001E04200020001E2000280BDE
:1037C8000C0B400002FFFFFFFF00E10000000000BB
:1037D800000100000000C18081000000000000001E
:1037E8001D0888093E08330884084208600800005C
:0A37F8000000490A0D0AE90AE80A78
:00000001FF
