:100000000C94CB050C94F3050C94F3050C94F305B8
:100010000C94F3050C94F3050C94F3050C94F30580
:100020000C94F3050C94F3050C94EA0B0C94590C06
:100030000C94F3050C94F3050C94F3050C94F30560
:100040000C94F3050C94F3050C94F3050C94F30550
:100050000C94F3050C94F3050C94F3050C948B0E9F
:100060000C94F3050C94F3050C94F3050C94F30530
:100070000C94F3050C94F3050C94F3050C94F30520
:100080000C94F3050C94F3050C94F3050C94F30510
:100090000C94F3050C94F3050C94F3050C94F30500
:1000A0000C94F3050C94F3050C94F3051E21418286
:1000B00041211E00FFF191FD85FF81FF7C8383AB11
:1000C00093837C00FC8393BB9383FC0000000609B0
:1000D000F90600003060300003060300FFD5ABD501
:1000E000ABD5ABFF00000000003E5B4F5B3E3E6BBC
:1000F0004F6B3E1C3E7C3E1C183C7E3C181C577DC2
:10010000571C1C5E7F5E1C00183C1800FFE7C3E70D
:10011000FF0018241800FFE7DBE7FF30483A060E1F
:100120002629792926407F050507407F05253F5A66
:100130003CE73C5A7F3E1C1C08081C1C3E7F1422D6
:100140007F22145F5F005F5F06097F017F00668981
:10015000956A606060606094A2FFA29408047E04C7
:100160000810207E201008082A1C08081C2A0808ED
:100170001E101010100C1E0C1E0C30383E383006AD
:100180000E3E0E06000000000000005F00000007A9
:10019000000700147F147F14242A7F2A12231308D7
:1001A000646236495620500008070300001C2241B3
:1001B000000041221C002A1C7F1C2A08083E080857
:1001C0000080703000080808080800006060002007
:1001D000100804023E5149453E00427F40007249EA
:1001E0004949462141494D331814127F102745458E
:1001F00045393C4A494931412111090736494949A4
:1002000036464949291E0000140000004034000011
:10021000000814224114141414140041221408027A
:10022000015909063E415D594E7C1211127C7F49ED
:100230004949363E414141227F4141413E7F494942
:1002400049417F090909013E414151737F0808086E
:100250007F00417F41002040413F017F081422413F
:100260007F404040407F021C027F7F0408107F3E99
:100270004141413E7F090909063E4151215E7F0906
:10028000192946264949493203017F01033F40406D
:10029000403F1F2040201F3F4038403F6314081458
:1002A0006303047804036159494D43007F41414190
:1002B0000204081020004141417F04020102044071
:1002C00040404040000307080020545478407F28F5
:1002D0004444383844444428384444287F385454EB
:1002E000541800087E090218A4A49C787F0804040E
:1002F0007800447D40002040403D007F10284400AD
:1003000000417F40007C047804787C08040478383D
:1003100044444438FC1824241818242418FC7C086D
:10032000040408485454542404043F44243C4040EA
:10033000207C1C2040201C3C4030403C442810289D
:10034000444C9090907C4464544C440008364100E6
:100350000000770000004136080002010204023C60
:100360002623263C1EA1A161123A4040207A38542F
:1003700054555921555579412154547841215554AA
:10038000784020545579400C1E52721239555555FB
:1003900059395454545939555454580000457C41E6
:1003A0000002457D420001457C40F0292429F0F0FF
:1003B000282528F07C545545002054547C547C0A50
:1003C000097F4932494949323248484832324A481D
:1003D00048303A4141217A3A42402078009DA0A01D
:1003E0007D39444444393D4040403D3C24FF242471
:1003F000487E4943662B2FFC2F2BFF0929F620C08E
:10040000887E090320545479410000447D413048DE
:10041000484A32384040227A007A0A0A727D0D1921
:10042000317D2629292F28262929292630484D4083
:1004300020380808080808080808382F10C8ACBA7F
:100440002F102834FA00007B000008142A142222FE
:10045000142A14089500220095AA005500AAAA554E
:10046000AA55AA000000FF00101010FF0014141479
:10047000FF001010FF00FF1010F010F0141414FC17
:10048000001414F700FF0000FF00FF1414F404FC34
:10049000141417101F10101F101F1414141F001015
:1004A0001010F0000000001F101010101F1010108E
:1004B00010F010000000FF1010101010101010109D
:1004C000FF10000000FF140000FF00FF00001F10DD
:1004D000170000FC04F414141710171414F404F497
:1004E0000000FF00F714141414141414F700F71488
:1004F0001414171410101F101F141414F4141010D7
:10050000F010F000001F101F0000001F140000007A
:10051000FC140000F010F01010FF10FF141414FF72
:10052000141010101F00000000F010FFFFFFFFFF6D
:10053000F0F0F0F0F0FFFFFF0000000000FFFF0F01
:100540000F0F0F0F38444438447C2A2A3E147E0291
:10055000020606027E027E02635549416338444426
:100560003C04407E201E2006027E020299A5E7A5DB
:10057000991C2A492A1C4C7201724C304A4D4D304C
:100580003048784830BC625A463D3E494949007E71
:100590000101017E2A2A2A2A2A44445F4444405108
:1005A0004A444040444A51400000FF0103E080FFBC
:1005B000000008086B6B083612362436060F090F48
:1005C00006000018180000001010003040FF010164
:1005D000001F01011E00191D1712003C3C3C3C008D
:1005E00000000000F0F89C8E8783878E9CF8F00056
:1005F00000FEFF0303030303070EFCF80000FEFFE9
:100600000303030303070EFCF80000FFFF000000D4
:1006100000000000FFFF0000FEFF8383838383C789
:10062000EE7C380000F8FC0E07030303070EFCF80D
:1006300000003F7FE0C08080C0E07F3FFFFF0101FE
:100640000101010101FFFF0000FFFF0C0C0C0C1C5D
:100650003E77E3C100007FFFC0C0C0C0C0E0703F74
:100660001F00001F3F70E0C0C0C0E0703F1F0000CF
:100670007FFFC1C1C1C1C1E3773E1C00001F3F70B5
:10068000E0C0C0C0E0703F1F000000000001FFFF9D
:1006900001000000D5F08D14A1C881CFD9F1AF20A1
:1006A000005052455353204100000000000000005C
:1006B000FC04F49494949494949C00FC04F4141416
:1006C0001414F404FC00FC04F414142428C810F0DE
:1006D00000FC04F494949494F404FC00FC04FC00E6
:1006E00000000000001C14F404F4141C001C14F49A
:1006F00004F4141C00FC04F49494949494949C00CA
:1007000000000000000000000000000000000000E9
:1007100000000000000000000000000000000000D9
:1007200000000000000000000000000000000000C9
:10073000737272727272727E7E7F007F7E7F7070C3
:1007400070707F7E7F007F7E7F707078383F1E1FC5
:10075000007F7E7E020202027E7E7F007F7E7F70AF
:10076000707070700070707F7E7F70700000007F0E
:100770007E7F0000007F7E7E7272727272727300E2
:100780000000000000000000000000000000000069
:100790000000000000000000000000000000000059
:1007A0000000000000000000000000000000000049
:1007B0000000000000000000000000000000000039
:1007C0000000000000000000000000000000000029
:1007D0000000000000000000000000000000000019
:1007E0000000000000000000000000000000000009
:1007F00000000000000000000000000000000000F9
:1008000000000000000000000000000000000000E8
:1008100000000000000000000000000000000000D8
:1008200000000000000000000000000000000000C8
:1008300000000000000000000000000000000000B8
:1008400000000000000000000000000000000000A8
:100850000000000000000000000000000000000098
:100860000000000000000000000000000000000088
:100870000000000000000000000000000000000078
:100880000000000000000000000000000000000068
:100890000000000000000000000000000000000058
:1008A0000000000000000000000000000000000048
:1008B00000000000000000CC340A0A0A0A0A34CC06
:1008C00000000000000000000000E0A020408000C8
:1008D0000000000000000000000000000000000018
:1008E0000000000000000000000000000000000008
:1008F00000000000000000000000000000000000F8
:1009000000000000000000000000000000000000E7
:1009100000000000000000000000000000000000D7
:1009200000000000000000000000000000000000C7
:1009300000000000008040BF40C0C2C7424020BF4E
:1009400090D048A864B452B266CF5DDF4FA650AFD6
:100950000000000000000000000000000000000097
:100960000000000000000000000000000000000087
:100970000000000000000000000000000000000077
:100980000000000000000000000000000000000067
:100990000000000000000000000000000000000057
:1009A0000000000000000000000000000000000047
:1009B00000B068A864B6532A592D142A160B150ADC
:1009C000050A050201020102010201020100000004
:1009D0000000000000000000000000000000000017
:1009E0000000000000000000000000000000000007
:1009F00000000000000000000000000000000000F7
:100A000000000000000000000000000000000000E6
:100A100000000000000000000000000000000000D6
:100A200000000000000000000000000000000000C6
:100A300000000100000000000000000000000000B5
:100A400000000000000000000000000000000000A6
:100A50000000000000000000000000000000000096
:100A60000000000000000000000000000000000086
:100A70000000000000000000000000000000000076
:100A80000000000000000000000000000000000066
:100A90000000000000000000000000000000000056
:100AA00000000000000000000047414D45204F5667
:100AB000455200083E7FFFFFBE08000808083E5967
:100AC000A9D9BE08000208010400000000020702C4
:100AD00000000000000404020502000000000008FD
:100AE00008CEB38F838FB3CE00DEFFFFFFFFFFEE94
:100AF00000080800DEBF939F93EE00CEFFFFFFFFCC
:100B0000FFCE000808DEBF9F9F9FBFDE00EEFFFF05
:100B1000FFFFFFCE00080800EE939F93BFDE0008A2
:100B20000B000202020000090400000102020000A2
:100B300005240010010524010101042402060524F6
:100B40000600010705810310004009040100020AA4
:100B50000000000705020240000007058302400074
:100B6000000403090412010002EF02014041233690
:100B70008000010102030141726475696E6F204CAF
:100B80004C430041726475696E6F204C656F6E61F5
:100B900072646F00080F11241FBECFEFDAE0DEBFD2
:100BA000CDBF11E0A0E0B1E0E8E7FEE202C00590B1
:100BB0000D92A634B107D9F726E0A6E4B1E001C052
:100BC0001D92AE33B207E1F715E0CBECD5E004C0DF
:100BD0002197FE010E943417CA3CD107C9F70E9431
:100BE000250F0C943A170C94000080E0EAEEF1E037
:100BF00081118FEF002481938193819381930394DA
:100C0000D1F70895EAEEF1E0A0E0B8E000800EBC74
:100C10008111012C1197A0FDFDCF0192B9F70DB400
:100C200008952F923F924F925F926F927F928F9290
:100C30009F92AF92BF92CF92DF92EF92FF920F936B
:100C40001F93CF93DF9330E0F901E80FF91F1E16D1
:100C50001F060CF098C0803891050CF094C0FB0181
:100C6000E00FF11D1E161F060CF08DC060347105DB
:100C70000CF089C0DB0177FF04C0AA27BB27A61BA5
:100C8000B70BA770BB27EB0177FD2796E3E0D5955F
:100C9000C795EA95E1F777FF07C0219768E070E014
:100CA000FB01EA1BFB0BDF01069506950695602EFE
:100CB000712C7A01AE015695542F442757954795CC
:100CC000480F591F46515E4FBE01E8E0F0E02F018A
:100CD0004A1A5B0A6F3FFFEF7F070CF444C06C01B8
:100CE00010E000E04A01F0E88F0E911CD7FC2EC006
:100CF0006F3F760709F45AC0F701E00FF11FE49146
:100D00005A01A00EB11EF0E01F010A2E01C0220CF4
:100D10000A94EAF7F5013080232820821097B1F079
:100D20006730710599F0F701E00FF11FE49154016C
:100D3000A00EB11EF0E01F01042C02C035942794D0
:100D40000A94E2F7F5013080232820820F5F1F4FBD
:100D5000FFEFCF1ADF0A021713072CF4E0E8CE16D4
:100D6000D10409F0C3CF6F5F7F4FE20EF31E4058EE
:100D70005F4FFB01EC1BFD0BE615F70524F4683013
:100D8000710509F0A7CFDF91CF911F910F91FF90CF
:100D9000EF90DF90CF90BF90AF909F908F907F901B
:100DA0006F905F904F903F902F900895109709F0AB
:100DB000BACFCCCF4F925F927F928F929F92AF9299
:100DC000BF92CF92DF92EF92FF920F931F93CF9338
:100DD000DF93DC014115510509F4B9C0FA01F49023
:100DE0003196E491CF2DD0E08E01080F191F101617
:100DF00011060CF0ACC0803891050CF0A8C0CB01F6
:100E00008E0F911D181619060CF0A1C060347105E3
:100E10000CF09DC0F62FF7707F2ECB0177FD079663
:100E2000F3E095958795FA95E1F7F82F77FF04C0E1
:100E3000772011F0FFEFF80F662777276A1B7B0BEF
:100E4000B7FD02C070E060E080E8882E8A1A0038A2
:100E500011050CF48F2C861A0F2F0F2E000C110B7E
:100E6000E02EE094FF3F0CF0E12C91E08E2F877094
:100E700009F490E0E695E695E6959E0F090F111DA1
:100E80000930110514F098E09F1B9E2C9F0E092D30
:100E900010E8010360011124AC0DBD1DA60FB71FA2
:100EA000FE9C600D711D11244E5F5F4F460F571F52
:100EB000072D072C000C110B260F371F9F0F9915BC
:100EC00009F445C0BD0166517E4F7B01D12CC12C78
:100ED000C814A8F5F901EC0DFD1D649170E0002E19
:100EE00002C0660F771F0A94E2F760957095FA01C9
:100EF000EC0DFD1DE491F0E02F01002E02C0440C2A
:100F0000551C0A94E2F797FC05C0F70180818623FF
:100F100084298083772061F0F6E0F9154CF05701C1
:100F200080E8A80EB11CF501808187238529808384
:100F3000FFEFCF1ADF0A6FEFE61AF60AC9CF9394D4
:100F40004C0F5D1F2C0F3D1FA058BF4FB8CFDF9136
:100F5000CF911F910F91FF90EF90DF90CF90BF90B6
:100F6000AF909F908F907F905F904F900895FC017D
:100F70008091E901882311F13FB7F89482E08093D2
:100F8000E9002091F200822F90E01816190614F45F
:100F900081E090E0882339F0289844E64093E80106
:100FA0004091F1004083222339F02091F200211179
:100FB00003C02BE62093E8003FBF08958FEF9FEF1B
:100FC00008952FB7F89483E08093E9009091E800AA
:100FD000892F807295FF04C09091F20080E4891BF4
:100FE0002FBF08958091E00181110DC082E08093B0
:100FF000DC0184E08093DD011092DF011092DE01BC
:1010000081E08093E0018CED91E00895CF93DF9330
:101010001F92CDB7DEB76983DC01ED91FC910280B0
:10102000F381E02D41E050E0BE016F5F7F4F0995F5
:101030000F90DF91CF91089583E08093E900809134
:10104000F200882319F08AE38093E80008950E9453
:10105000E10790E00895CF93DF931F92CDB7DEB7FD
:10106000FC018485958597FD08C02FEF3FEF3587FC
:1010700024870F90DF91CF910895CE0101960E94B1
:10108000B707019719F4898190E0F3CF8FEF9FEFB5
:10109000F0CF0F931F93CF93DF931F92CDB7DEB79F
:1010A0008C01FC018485958597FF0BC0CE010196CC
:1010B0000E94B707019771F4898190E0F801958744
:1010C0008487F801848595850F90DF91CF911F91DA
:1010D0000F9108958FEF9FEFF1CFFC0184859585E7
:1010E00097FD0BC09FB7F89482E08093E900809150
:1010F000F2009FBF90E0019608959FB7F89482E0B8
:101100008093E9008091F2009FBF90E008954091A4
:10111000D6015091D7012091D4013091D5014217C9
:101120005307B4F49091E8009570E1F39091E800D2
:1011300092FD19C08093F1008091D6019091D70162
:1011400001968F739927892B19F48EEF8093E8000D
:101150008091D6019091D70101969093D701809309
:10116000D60181E0089580E00895DF92EF92FF922A
:101170000F931F93CF93DF93D82E8A01EB017B014E
:10118000E40EF51ECE15DF0559F0D7FE12C0FE01A4
:1011900084910E94870821968111F4CF0FEF1FEFF1
:1011A000C801DF91CF911F910F91FF90EF90DF90D9
:1011B00008958881EECF0F931F93CF93DF931F92F3
:1011C000CDB7DEB782E0898342E450E06FE17BE097
:1011D00080E80E94B5080E94F207DC0112960D918A
:1011E0001C910115110589F0D801ED91FC91028047
:1011F000F381E02DBE016F5F7F4FC801099597FD18
:1012000004C0F80100851185ECCF89810F90DF9132
:10121000CF911F910F910895615030F02091F1000E
:10122000FC0120830196F8CF289884E68093E8019A
:1012300008953FB7F8948091D0019091D101A09189
:10124000D201B091D30126B5A89B05C02F3F19F05C
:101250000196A11DB11D3FBFBA2FA92F982F882736
:10126000BC01CD01620F711D811D911D42E0660F11
:10127000771F881F991F4A95D1F708958F929F92E3
:10128000AF92BF92CF92DF92EF92FF926B017C01FF
:101290000E9419094B015C01C114D104E104F1045D
:1012A000B9F00E941909681979098A099B09683EF1
:1012B00073408105910580F321E0C21AD108E1084D
:1012C000F10888EE880E83E0981EA11CB11CE4CFC3
:1012D000FF90EF90DF90CF90BF90AF909F908F9056
:1012E00008958F929F92AF92BF92CF92DF92EF922A
:1012F000FF920F931F93CF93DF936C017B018A01C1
:1013000080911B01882309F45CC08091E901882346
:1013100009F457C08091DB0180FF05C08091E00097
:1013200082608093E000E801B12C8AEFA82E93E060
:10133000892E2AE3922E209711F4BB20D9F10E9426
:10134000E10781110AC0AA94AA20D9F161E070E0F6
:1013500080E090E00E943E09EECF8C171D0611F050
:101360000CF08C2F9FB7F8948092E9002091E80050
:1013700025FD02C09FBFDFCF282F30E0C21BD30B5B
:10138000F701815020F041914093F100FACFE20E35
:10139000F31EBB2021F09092E800B12CEBCF80919E
:1013A000E80085FDE7CF9092E800BB24B394209736
:1013B00009F3F3CF5D9884E68093DA0110161106E5
:1013C0003CF081E090E0F6019383828310E000E03E
:1013D000C801DF91CF911F910F91FF90EF90DF90A7
:1013E000CF90BF90AF909F908F900895AF92BF9293
:1013F000CF92DF92EF92FF920F931F93CF93DF93E1
:101400006C017B018B01040F151FEB015E01AE180F
:10141000BF08C017D10759F06991D601ED91FC9131
:101420000190F081E02DC6010995892B79F7C5015E
:10143000DF91CF911F910F91FF90EF90DF90CF90B0
:10144000BF90AF9008952D9A0895BC0190E080E080
:101450000C943E098FB18095807F669B88601C9BB1
:1014600084600895AF92BF92CF92DF92EF92FF9285
:101470000F931F93CF93DF936D3079F0C0914C01A0
:10148000D0914D016A30B1F410924B0110924A0193
:101490002896D0934D01C0934C0181E090E0DF91FC
:1014A000CF911F910F91FF90EF90DF90CF90BF9061
:1014B000AF90089540914A0150914B0185E0689F9B
:1014C000F0011124EC51FF4F9A01C12C80E1E82E6C
:1014D000A5E070E0CA1621F0CF0101967491FC01DD
:1014E00010E000E0B72FB170DB2E20383105D0F4CA
:1014F000CE01800F911F80349105A0F461E081FD41
:1015000064E080FD660F82FD6295887FE89ED001D1
:101510001124A20FF62EA651BE4F8C91DD20A9F00A
:10152000862B8C9376950F5F1F4F08301105D1F6EF
:10153000C3942F5F3F4F86E0C812CACF4A5F5F4F08
:1015400050934B0140934A01A8CFF0948F21E9CFEB
:101550000F931F93CF93DF938C01D0E0C0E0F8018D
:10156000EC0FFD1F6491662341F08AE396E00E9430
:10157000320A892B11F02196F2CFCE01DF91CF9163
:101580001F910F910895CF93C82F0E942A0A982F78
:101590009C2381E09C1380E0CF91089580E00C941F
:1015A0000206CF92DF92EF92FF920F93CF93DF93D9
:1015B000D0E0C0E0CE0187599E4F6C01F12CE12CA8
:1015C000F60181916F0108E028E04CED50E0843194
:1015D000F1F008E028E044ED50E08331C1F008E08C
:1015E00028E04CEC50E0853091F008E028E044EC35
:1015F00050E0873061F008E028E04CEB50E08830A4
:1016000031F0813041F408E028E044EB50E0B701CC
:10161000CE010E941106F8E0EF0EF11C80E4E816FE
:10162000F10471F62896C036D10521F6E09001014B
:101630001E1474F4F12C08E028E04CEA50E070E04D
:1016400060E0CE010E941106F3942896EF10F3CFCC
:10165000DF91CF910F91FF90EF90DF90CF900895A1
:10166000089590E080E008950C94BB162F923F926D
:101670004F925F926F927F928F929F92AF92BF92A2
:10168000CF92DF92EF92FF920F931F93CF93DF934E
:1016900000D01F92CDB7DEB799E6292E91E0392E02
:1016A0008CE0898325E0422E512C612C712C34E191
:1016B000C32ED12CE12CF12C44E0842E912CA12CB2
:1016C000B12C1B821A820E9463162AE030E040E0AF
:1016D00050E00E94D1160A811B81020D131D672B59
:1016E000682B692B09F049C084E1F80180838A8165
:1016F0009B8101969B838A83089729F79981915052
:101700009983E8E02E0E311C9111DBCF0E94631605
:101710004B015C010E94631628E030E040E050E09D
:101720000E94D1166B01C501B4012CE030E040E00D
:1017300050E00E94D11683E0660F771F8A95E1F78B
:1017400067597E4F6C0D7D1D81E0FB0180830F90FA
:101750000F900F90DF91CF911F910F91FF90EF901D
:10176000DF90CF90BF90AF909F908F907F906F90C1
:101770005F904F903F902F9008950E946316A301B1
:1017800092010E94D116672B682B692B11F483E11B
:10179000ACCF0E946316A70196010E94D116672B59
:1017A000682B692BA1F40E946316A50194010E9485
:1017B000D116662331F0613041F0623019F468E0EF
:1017C00001C065E0F801608392CF67E0FBCFF801CC
:1017D00010828DCF1F920F920FB60F9211248F930C
:1017E0009F938091E1009091E100937F9093E100BD
:1017F00083FF0FC01092E90091E09093EB001092EC
:10180000EC0092E39093ED001092E90198E0909340
:10181000F00082FF22C093E09093E9009091F200E3
:10182000992319F09AE39093E8009091DA019923B3
:1018300041F09091DA0191509093DA01911101C039
:101840005D9A9091E801992341F09091E8019150BF
:101850009093E801911101C0289A84FF18C08091EB
:10186000E2008E7E81608093E2008091E1008F7EB5
:101870008093E1008091DB018E7E80618093DB01AB
:101880009F918F910F900FBE0F901F90189580FF22
:10189000F7CF8091E2008E7E80618093E20080919C
:1018A000E1008E7E8093E1008091DB018E7E81607D
:1018B000E5CF1F920F920FB60F921124CF92DF92B5
:1018C000EF92FF920F931F932F933F934F935F934A
:1018D0006F937F938F939F93AF93BF93EF93FF93F8
:1018E000CF93DF93CDB7DEB76C97DEBFCDBF10923D
:1018F000E9008091E80083FF25C068E0CE014596AD
:101900000E940C0982EF8093E8008D8987FF39C01F
:101910009091E80090FFFCCF982F907609F034C1A9
:101920009E894F89588D2F89F88C911131C080384C
:1019300061F58091D9018093F1001092F1008EEF52
:101940008093E8006C960FB6F894DEBF0FBECDBF53
:10195000DF91CF91FF91EF91BF91AF919F918F91C7
:101960007F916F915F914F913F912F911F910F91B7
:10197000FF90EF90DF90CF900F900FBE0F901F90D1
:1019800018959EEF9093E800C7CF1092F100D5CF45
:10199000913059F48111D3CF4130510581F68091B6
:1019A000D9018D7F8093D901CACF933049F4811139
:1019B000C6CF4130510519F68091D9018260F2CF2E
:1019C000953041F48091E80080FFFCCF206820939F
:1019D000E300B5CF963009F0A9C00B8D1C8D22E035
:1019E0001092E9001092D7011092D601F2122EC087
:1019F0001092D5011092D4010E94DB081F8299E059
:101A00009983FA8291E09E8390EA98879AEF99876A
:101A10002091D6013091D701275F3F4F3C832B8324
:101A20008D831092E9001092D7011092D601109385
:101A3000D5010093D40149E050E0BE016F5F7F4FB4
:101A400080E00E94B5080E94DB0879CF1093D50191
:101A50000093D4010E94F207DC0112960D911C91B3
:101A60000115110509F451C1D801ED91FC910480D3
:101A7000F581E02DBE016B5E7F4FC801099500978F
:101A800009F03EC1F80100851185EACFF3E0FF12AD
:101A90000EC08F89882309F440C0823061F440E889
:101AA00060E183E89BE00E94D50E811148CF81E27E
:101AB0008093EB0047CF813029F440E86BE087E763
:101AC0009BE0F1CF833099F70E94F207DC01129678
:101AD000ED90FC908E010F5F1F4F6801E114F1043F
:101AE00079F0D701ED91FC910680F781E02DB801E6
:101AF000C7010995080F111DF701E084F184EECFAD
:101B0000D8011C92F60101900020E9F73197BF013E
:101B10006C197D0940E0C601C6CF61E67BE0FB01A0
:101B2000449150E080E80E94B50809CF973009F44D
:101B3000BECF983021F481E08093F10000CF99303E
:101B400009F0FDCE837009F0B2CFE1E2F1E081E06F
:101B500031E096E32191222371F08093E9003093E4
:101B6000EB00DF0111972C912093EC009093ED0096
:101B70008F5F873079F78EE78093EA001092EA0052
:101B80008F898093E901DBCE8B8D9C8D1092E900CB
:101B90001092D7011092D6019093D5018093D40171
:101BA000898D811192C08E899D89913A49F4813243
:101BB00009F07DCF47E050E064E171E080E0B3CF11
:101BC000913209F074CF833269F48F89988DB0E037
:101BD000A0E08093100190931101A0931201B093A3
:101BE0001301ADCE803269F48091E80082FFFCCF12
:101BF00067E084E191E00E940C098BEF8093E8009C
:101C00009ECE823209F09BCE8F8980931B01EEEF2E
:101C1000FFE7859194918B3F9C4D51F1E0E0F8E016
:101C20008091140190911501A0911601B0911701B6
:101C3000803B9440A105B105F1F480911B0180FD2A
:101C40001AC0EE3F8AE0F80789F587E797E79183A6
:101C50008083809160008093D80188E19BE00FB67B
:101C6000F894A895809360000FBE9093600067CEB3
:101C7000EEEFFAE0D5CF808191818737974709F061
:101C80005ECEA8958091600088618093600080910D
:101C9000D80180936000EE3F2AE0F20789F080913E
:101CA000FE0A9091FF0A9183808349CE80819181C1
:101CB0008737980751F29093FF0A8093FE0AC5CFA9
:101CC0001092FF0A1092FE0A3ACE0E94F207DC013F
:101CD00012960D911C910115110509F4E8CED80159
:101CE000ED91FC910190F081E02DBE016B5E7F4F84
:101CF000C8010995811123CEF80100851185EBCF2C
:101D0000181619060CF41BCED2CEF1E0FF12BECE8F
:101D100065E67BE004CF1F920F920FB60F9211245D
:101D20002F933F938F939F93AF93BF938091CC0159
:101D30009091CD01A091CE01B091CF013091CB0116
:101D400023E0230F2D3758F50196A11DB11D2093D7
:101D5000CB018093CC019093CD01A093CE01B093A1
:101D6000CF018091D0019091D101A091D201B09189
:101D7000D3010196A11DB11D8093D0019093D10193
:101D8000A093D201B093D301BF91AF919F918F9156
:101D90003F912F910F900FBE0F901F90189526E83E
:101DA000230F0296A11DB11DD2CFEF92FF920F9388
:101DB0001F93CF93DF93F82E192FE62E042F81E087
:101DC000860F880F0E94870883E00E948708CF2D26
:101DD000D12FEC0EFD2EF11CCE15DF05B9F007FF5B
:101DE00013C0FE0184910E948708182F80E00E9492
:101DF0008708812321968111EFCFDF91CF911F9129
:101E00000F91FF90EF9008958881EDCF81E0F5CF9D
:101E1000EAEEF5E01382128288EE93E0A0E0B0E0F3
:101E200084839583A683B7838BE291E0918380833B
:101E30008FEF9FEF95878487EAE3F6E013821282A3
:101E40008DE391E0918380830895789484B58260D6
:101E500084BD84B5816084BD85B5826085BD85B54E
:101E6000816085BD80916E00816080936E001092CC
:101E70008100809181008260809381008091810047
:101E800081608093810080918000816080938000D8
:101E90008091910082608093910080919100816097
:101EA0008093910080919000816080939000809158
:101EB000C10084608093C1008091C10082608093E2
:101EC000C1008091C10081608093C1008091C300F6
:101ED00081608093C3008091C00082608093C000C5
:101EE0008091C20081608093C20080917A008460FA
:101EF00080937A0080917A00826080937A0080914A
:101F00007A00816080937A0080917A008068809363
:101F10007A001092E9011092D9011092DB018091B0
:101F2000D70081608093D70080EA8093D80089B57C
:101F3000806189BD89B5826089BD09B400FEFDCF8D
:101F400061E070E080E090E00E943E098091D8005E
:101F50008F7C80618093D8008091E000807F8093A7
:101F6000E0008091E1008E7E8093E1008DE080931F
:101F7000E200559A209A81EC80937C0085B1806FB5
:101F800085B984B1877E84B984B1876E84B95E9A3D
:101F90005F988AB1806D8AB9769A6E9881B3806FA6
:101FA00081BB899880B38D7080BB80E58CBD81E05A
:101FB0008DBD85E090E00E94250A5F9A85E090E063
:101FC0000E94250A5E985C98E4E9F6E081EA96E0D2
:101FD00024912EBD00000DB407FEFDCF31968E1763
:101FE0009F07B1F75C9A81E8809364008091650057
:101FF0008160809365000E94CE0A80E80E94C30A37
:102000008823A9F05C9885EA8EBD00000DB407FE18
:10201000FDCF5C9A2E982F982D9880916400806255
:102020008093640081E083BF889513BEFCCF84E079
:102030000E94C30A882309F448C02D9884E80E94AE
:10204000C30A8823E1F00E94230A88EC90E00E94F2
:10205000250A2F9882E090E00E94BB168F3F29F05E
:102060006FEF82E090E00E94C31684EF91E00E943F
:10207000250A2F9A84E80E94C30A8111FBCF84E1CC
:102080000E94C30A8823E1F00E94230A88EC90E0B2
:102090000E94250A2E9882E090E00E94BB168823B9
:1020A00029F060E082E090E00E94C31684EF91E0A6
:1020B0000E94250A2E9A84E10E94C30A8111FBCF57
:1020C00088EC90E00E94250AB2CF0E94230A82E0A9
:1020D00090E00E94340B882309F48BC03E9A3F9A0B
:1020E00081E090E00E94340B182F147081FF0EC025
:1020F00011112E98C1EFDFEF80E40E94C30A8823FC
:1021000009F47AC02E9A2F9A0E94230A82E390E063
:102110000E94250A0E942A0A8111F8CF0E94F50523
:1021200010924D0110924C0110924B0110924A01F5
:10213000809164008E7F8093640080917A00806437
:1021400080937A0080917A0086FDFCCFC091780060
:10215000D09179000E941909AB01BC01CE01B0E019
:10216000A0E0DC01992788278C019D01040F151F31
:10217000261F371FC901B8012091640021602093F8
:102180006400611571058105910511F00E94B21678
:1021900081E28093000192E0692E712C20E2E22E10
:1021A000F12CCC24C394D12C1BEFA12E1AE0B12E1C
:1021B00009EE202E0AE0302E83E0482E8BE0582EC8
:1021C0002FB7F8948091CC019091CD01A091CE01D0
:1021D000B091CF012FBF20914801222309F464C0A0
:1021E0001092480180E090E0892B51F30E9400009A
:1021F000D8CF3E983F9874CF112329F0C430D10531
:1022000011F42E9A2F9881E00E94020600E128E541
:1022100044EE55E0BE0184E190E00E9411060E9468
:10222000CE0A8FE090E00E94250A2196C931D1059F
:1022300009F062CF112311F02F9A2D9880E991E0D7
:102240000E94250A0E94230A81E090E00E94340B3C
:1022500080FF5CCF8AE090E00E94340B9FEF980FE4
:102260009E3F08F053CF22E330E030934B012093A0
:102270004A0128E330E030934D0120934C01CBE03C
:10228000D0E0682F8AE396E00E94320ACE010E94D5
:10229000340B2196C131D105A1F70E94CE0A88EEF8
:1022A00093E00E94250A32CF20914901182F121B7A
:1022B000212F30910001131748F42F5F231708F0E6
:1022C00091CF81E083BF889513BE8CCFC1E0C093CE
:1022D0004801809349018091460190914701019600
:1022E00090934701809346010E94F50510924D019D
:1022F00010924C0110924B0110924A0180910F01F3
:102300008111FDC30E94D10A8091CA0118161CF4E4
:1023100081508093CA0180E20E94C30A8090070125
:1023200090900801882309F444C080910D01909198
:102330000E0118161906ECF525E13BE030930C016F
:1023400020930B012DE03BE030930A01209309011B
:102350001092C9019C0127703327232B29F5FC011A
:10236000C3E0F595E795CA95E1F73197940197FE9B
:1023700002C0295F3F4FA3E035952795AA95E1F765
:10238000B3E0EE0FFF1FBA95E1F7E759FE4FE20FFA
:10239000F31F208124316CF4940127703327232B01
:1023A00019F0218124312CF4019790930E01809330
:1023B0000D0180E80E94C30AC0910D01D0910E0169
:1023C000882309F44AC0181419040CF046C050922E
:1023D0000C0140920B01B0920A01A092090181E028
:1023E0008093C901C40187709927892B79F5CE01A3
:1023F000D7FD079653E0959587955A95E1F7940197
:1024000063E0359527956A95E1F721503109FC0184
:1024100073E0EE0FFF1F7A95E1F7E759FE4FE20FE9
:10242000F31F40814431CCF4AE0147705527452B52
:1024300069F043E0880F991F4A95E1F78F589E4F46
:10244000820F931FFC01808184313CF4F1E08F1AEC
:102450009108909208018092070180E40E94C30ACB
:102460008090070190900801882309F43FC0C83587
:10247000D105E4F501EF1AE010930C0100930B0174
:1024800030920A012092090182E08093C901CE01B5
:1024900087709927892B29F5FE01D7FD379683E0B0
:1024A000F595E7958A95E1F73196C40197FC079673
:1024B00013E0959587951A95E1F703E0EE0FFF1F5E
:1024C0000A95E1F7E759FE4FE80FF91F8081843143
:1024D0006CF4C40187709927892B19F081818431AC
:1024E0002CF42196D0930E01C0930D0180E10E943F
:1024F000C30AC0910D01D0910E01882309F451C087
:1025000018E3811691040CF04CC02FED3AE03093A3
:102510000C0120930B01B0920A01A092090183E003
:102520008093C901C40187709927892B99F5CE0141
:10253000D7FD0796B3E095958795BA95E1F7940195
:1025400097FE02C0295F3F4FF3E035952795FA9536
:10255000E1F72F5F3F4FFC01A3E0EE0FFF1FAA95AD
:10256000E1F7E759FE4FE20FF31F40814431CCF40D
:10257000AE0147705527452B69F0E3E0880F991F9E
:10258000EA95E1F78F589E4F820F931FFC018081DF
:1025900084313CF4FFEF8F1A9F0A909208018092D9
:1025A0000701809168018F5F823009F4ADC080938C
:1025B000680188E00E94C30A80900701909008019A
:1025C000882319F18091670181111FC081E08093F8
:1025D00067018091550190915601892B09F0D1C175
:1025E000D0935001C0934F019092520180925101BB
:1025F0008091C901082E000C990B9093540180938F
:102600005301D0925601C092550188E00E94C30A3E
:10261000811102C01092670110924E0110914E017B
:1026200013300CF021C208E01002C0011124FC019B
:10263000E15BFE4F268137812130310509F0F5C17C
:10264000248135812115310509F0D4C120813181E2
:102650002150310931832083FC01E15BFE4F208151
:1026600031812D35310598F4428153814D33510527
:1026700070F473E0559547957A95E1F7287F2759CF
:102680003E4F240F351FF901208124312CF0FC012D
:10269000E15BFE4F77826682FC01E15BFE4F408189
:1026A0005181209104013091050142175307DCF05C
:1026B000285F3F4F24173507B4F0428153812091A2
:1026C000020130910301421753076CF0285F3F4F1E
:1026D0002417350744F020910601213021F4778238
:1026E000668210920601FC01E15BFE4F62817381FC
:1026F0002DEC3AE045ED5AE0808191810E94DA06A6
:102700001F5F10934E018ACF1092680180910601DD
:10271000813009F04ECF2091040130910501809164
:10272000020190910301C217D3079CF512161306FC
:1027300084F5A90147705527452B29F5F90173E068
:10274000F595E7957A95E1F73197AC0197FF02C0CF
:10275000495F5F4F03E0559547950A95E1F763E0C0
:10276000EE0FFF1F6A95E1F7E759FE4FE40FF51FE3
:102770004081443174F4AC0147705527452B19F062
:102780004181443134F421503109309305012093C3
:1027900004016091070170910801209104013091BA
:1027A000050168177907E4F518161906CCF5AC0190
:1027B00047705527452B79F5A90137FF02C0495FBE
:1027C0005F4FE3E055954795EA95E1F7DC01F3E0CB
:1027D000B595A795FA95E1F71197FA0113E0EE0F79
:1027E000FF1F1A95E1F7E759FE4FEA0FFB1FE08143
:1027F000E431B4F4F901E770FF27EF2B61F003E057
:10280000440F551F0A95E1F74F585E4FA40FB51FAF
:102810004C9144312CF40197909303018093020171
:1028200080910201909103012C173D07ACF52835EA
:10283000310594F5A90147705527452B39F5F90164
:1028400037FD379613E0F595E7951A95E1F7319640
:10285000AC0197FF02C0495F5F4FA3E055954795D4
:10286000AA95E1F7B3E0EE0FFF1FBA95E1F7E7593C
:10287000FE4FE40FF51F4081443174F4AC01477002
:102880005527452B19F04181443134F42F5F3F4FD8
:1028900030930501209304014091040150910501FA
:1028A000861797070CF03EC088339105DCF59C0134
:1028B00027703327232B89F59A0157FF02C0295F20
:1028C0003F4F03E0359527950A95E1F7FC0197FD09
:1028D0003796B3E0F595E795BA95E1F73196D901CA
:1028E00013E0AA0FBB1F1A95E1F7A759BE4FAE0F11
:1028F000BF1FAC91A431B4F4DA01A770BB27AB2B96
:1029000061F0A3E0220F331FAA95E1F72F583E4F45
:10291000E20FF31F208124312CF4019690930301E0
:1029200080930201CE010896841795070CF441CEDE
:10293000485F5F4F4C175D070CF43BCE809102015E
:10294000909103019B01285F3F4F281739070CF432
:1029500030CE0896861797070CF42BCE8091CA01CB
:10296000811127CE80910101815080930101811155
:1029700004C081E080930F011CCE8CE38093CA01D8
:1029800018CE80915D0190915E01892BB1F4D093B6
:102990005801C093570190925A0180925901809139
:1029A000C901082E000C990B90935C0180935B0188
:1029B000D0925E01C0925D0128CE80916501909118
:1029C0006601892B09F021CED0936001C0935F018D
:1029D00090926201809261018091C901082E000CE1
:1029E000990B9093640180936301D0926601C09229
:1029F00065010BCE2130310539F42281338121501C
:102A000031093383228328CE2230310529F42081F5
:102A100031812F5F3F4F1ECE2330310509F01CCE90
:102A2000228133812F5F3F4FECCFA90142505109E2
:102A30004830510508F064CE2F5F3F4F2A303105F2
:102A400081F037832683FC01E15BFE4F6281738155
:102A500008E028E045EC5AE0808191810E9411064F
:102A60004FCE17821682EFCFCE01049697FD0796C0
:102A700063E0959587956A95E1F794012C5F3F4F48
:102A800037FF02C0295F3F4F43E0359527954A95B0
:102A9000E1F753E0880F991F5A95E1F787599E4F48
:102AA000280F391FF9018081813011F40E94360B03
:102AB0002091090130910A0140910B0150910C01C4
:102AC000609107017091080180910D0190910E01B4
:102AD0000E94DA0680910601181674F460910201D2
:102AE0007091030123EB3AE04BEB5AE08091040133
:102AF000909105010E94DA060E94CE0A73CB8130C4
:102B000009F04DC008E210E010934B0100934A0118
:102B100020E130E030934D0120934C0189EA9AE0A6
:102B20000E94A80A0E94D10A2091090130910A014D
:102B300040910B0150910C016091070170910801C7
:102B400080910D0190910E010E94DA06809106019C
:102B5000181674F4609102017091030123EB3AE0BE
:102B60004BEB5AE080910401909105010E94DA0636
:102B700088E00E94C30A882351F080916701811187
:102B800006C081E08093670182E080930F0188E0B6
:102B90000E94C30A8111B0CF10926701ADCF82307D
:102BA00009F0AACF00E420E849EA56E070E060E0CE
:102BB00090E080E00E94110688E390E090934B0142
:102BC00080934A01F0924D01E0924C0181EA96E037
:102BD0000E94A80A88E00E94C30A8823C1F280915B
:102BE00067018111D4CFC093670110920F010E9439
:102BF000360BE0E4F0E0F0930E01E0930D01F0926B
:102C00000801E09207011092C90184E0809301015C
:102C10001092CA01F0920501E0920401F0920301C2
:102C2000E0920201C093060110926801B0CF8F922A
:102C30009F92AF92BF92CF92DF92EF92FF92CF938B
:102C4000DF93EC01688179818A819B81611571052F
:102C50008105910521F464E279ED8BE597E02DE1A2
:102C600033EF41E050E00E94D11649015A019B0127
:102C7000AC01A7EAB1E40E94F0166B017C01ACEE56
:102C8000B4EFA50194010E94FE16C60ED71EE81EE1
:102C9000F91EF7FE06C081E0C81AD108E10880E8F5
:102CA000F80AC882D982EA82FB82C701B6019F77FF
:102CB000DF91CF91FF90EF90DF90CF90BF90AF90DA
:102CC0009F908F9008958F929F92AF92BF92CF92D4
:102CD000DF92EF92FF9260911C0170911D01809133
:102CE0001E0190911F01611571058105910521F467
:102CF00064E279ED8BE597E02DE133EF41E050E0C0
:102D00000E94D11649015A019B01AC01A7EAB1E426
:102D10000E94F0166B017C01ACEEB4EFA5019401AA
:102D20000E94FE16C60ED71EE81EF91EF7FE06C04C
:102D300081E0C81AD108E10880E8F80AC0921C01B5
:102D4000D0921D01E0921E01F0921F01C701B60151
:102D50009F77FF90EF90DF90CF90BF90AF909F90C4
:102D60008F90089560931C0170931D0180931E0144
:102D700090931F010895F999FECF92BD81BDF89AF5
:102D8000992780B50895262FF999FECF1FBA92BDD5
:102D900081BD20BD0FB6F894FA9AF99A0FBE01963C
:102DA0000895052E97FB1EF400940E94E81657FD27
:102DB00007D00E94031707FC03D04EF40C94E816CA
:102DC00050954095309521953F4F4F4F5F4F089557
:102DD00090958095709561957F4F8F4F9F4F089587
:102DE0000E942517A59F900DB49F900DA49F800D64
:102DF000911D11240895B7FF0C94F0160E94F0164F
:102E0000821B930B0895A1E21A2EAA1BBB1BFD0186
:102E10000DC0AA1FBB1FEE1FFF1FA217B307E407B9
:102E2000F50720F0A21BB30BE40BF50B661F771F11
:102E3000881F991F1A9469F76095709580959095F1
:102E40009B01AC01BD01CF010895A29FB001B39FCA
:102E5000C001A39F700D811D1124911DB29F700DA3
:102E6000811D1124911D0895EE0FFF1F0590F4910F
:082E7000E02D0994F894FFCF56
:102E7800100420002000012000FB0ADF0A400002A5
:102E8800FFFFFFFF00E1000000000000010000005C
:102E980000C18081000000000000000608710927B9
:102EA800081C086D082B08490800000000320AF6C3
:062EB80009310B300B0094
:00000001FF
