:100000000C9494030C94BC030C94BC030C94BC039C
:100010000C94BC030C94BC030C94BC030C94BC0364
:100020000C94BC030C94BC030C9495070C9404082A
:100030000C94BC030C94BC030C94BC030C94BC0344
:100040000C94BC030C94BC030C94BC030C94BC0334
:100050000C94BC030C94BC030C94BC030C94360AA3
:100060000C94BC030C94BC030C94BC030C94BC0314
:100070000C94BC030C94BC030C94BC030C94BC0304
:100080000C94BC030C94BC030C94BC030C94BC03F4
:100090000C94BC030C94BC030C94BC030C94BC03E4
:1000A0000C94BC030C94BC030C94BC030000000033
:1000B000003E5B4F5B3E3E6B4F6B3E1C3E7C3E1CEE
:1000C000183C7E3C181C577D571C1C5E7F5E1C0034
:1000D000183C1800FFE7C3E7FF0018241800FFE7EB
:1000E000DBE7FF30483A060E2629792926407F05AE
:1000F0000507407F05253F5A3CE73C5A7F3E1C1CC4
:1001000008081C1C3E7F14227F22145F5F005F5F83
:1001100006097F017F006689956A6060606060946F
:10012000A2FFA29408047E040810207E2010080874
:100130002A1C08081C2A08081E101010100C1E0C7F
:100140001E0C30383E3830060E3E0E060000000011
:100150000000005F00000007000700147F147F14F8
:10016000242A7F2A1223130864623649562050003D
:1001700008070300001C2241000041221C002A1C29
:100180007F1C2A08083E0808008070300008080814
:100190000808000060600020100804023E51494534
:1001A0003E00427F400072494949462141494D3352
:1001B0001814127F1027454545393C4A49493141B9
:1001C000211109073649494936464949291E000087
:1001D00014000000403400000008142241141414DC
:1001E0001414004122140802015909063E415D59C8
:1001F0004E7C1211127C7F494949363E41414122D1
:100200007F4141413E7F494949417F090909013EFA
:10021000414151737F0808087F00417F4100204021
:10022000413F017F081422417F404040407F021C33
:10023000027F7F0408107F3E4141413E7F0909094A
:10024000063E4151215E7F09192946264949493216
:1002500003017F01033F4040403F1F2040201F3FDC
:100260004038403F63140814630304780403615961
:10027000494D43007F4141410204081020004141A3
:10028000417F04020102044040404040000307084F
:100290000020545478407F2844443838444444284B
:1002A000384444287F385454541800087E090218F2
:1002B000A4A49C787F0804047800447D400020407A
:1002C000403D007F1028440000417F40007C0478BE
:1002D00004787C080404783844444438FC18242406
:1002E0001818242418FC7C08040408485454542486
:1002F00004043F44243C4040207C1C2040201C3C03
:100300004030403C44281028444C9090907C4464F9
:10031000544C44000836410000007700000041368C
:10032000080002010204023C2623263C1EA1A16112
:10033000123A4040207A3854545559215555794144
:100340002154547841215554784020545579400C1B
:100350001E527212395555555939545454593955FC
:100360005454580000457C410002457D420001453F
:100370007C40F0292429F0F0282528F07C545545AC
:10038000002054547C547C0A097F4932494949323F
:100390003248484832324A4848303A4141217A3A54
:1003A00042402078009DA0A07D39444444393D401E
:1003B00040403D3C24FF2424487E4943662B2FFCCB
:1003C0002F2BFF0929F620C0887E09032054547979
:1003D000410000447D413048484A32384040227A4A
:1003E000007A0A0A727D0D19317D2629292F2826C7
:1003F0002929292630484D402038080808080808CF
:100400000808382F10C8ACBA2F102834FA00007B27
:10041000000008142A142222142A1408950022002D
:1004200095AA005500AAAA55AA55AA000000FF00E7
:10043000101010FF00141414FF001010FF00FF1024
:1004400010F010F0141414FC001414F700FF000056
:10045000FF00FF1414F404FC141417101F10101FD5
:10046000101F1414141F00101010F0000000001FC3
:10047000101010101F10101010F010000000FF10CE
:100480001010101010101010FF10000000FF1400CA
:1004900000FF00FF00001F10170000FC04F41414FC
:1004A0001710171414F404F40000FF00F7141414C8
:1004B00014141414F700F7141414171410101F1048
:1004C0001F141414F4141010F010F000001F101F6B
:1004D0000000001F14000000FC140000F010F010D9
:1004E00010FF10FF141414FF141010101F00000050
:1004F00000F010FFFFFFFFFFF0F0F0F0F0FFFFFF54
:100500000000000000FFFF0F0F0F0F0F38444438AA
:10051000447C2A2A3E147E02020606027E027E02E5
:1005200063554941633844443C04407E201E200604
:10053000027E020299A5E7A5991C2A492A1C4C7241
:1005400001724C304A4D4D303048784830BC625AC8
:10055000463D3E494949007E0101017E2A2A2A2A58
:100560002A44445F444440514A444040444A514034
:100570000000FF0103E080FF000008086B6B0836F5
:1005800012362436060F090F060000181800000066
:100590001010003040FF0101001F01011E00191D55
:1005A0001712003C3C3C3C0000000000F0F89C8E20
:1005B0008783878E9CF8F00000FEFF03030303038C
:1005C000070EFCF80000FEFF0303030303070EFC05
:1005D000F80000FFFF00000000000000FFFF000027
:1005E000FEFF8383838383C7EE7C380000F8FC0E14
:1005F00007030303070EFCF800003F7FE0C0808084
:10060000C0E07F3FFFFF01010101010101FFFF0089
:1006100000FFFF0C0C0C0C1C3E77E3C100007FFFB9
:10062000C0C0C0C0C0E0703F1F00001F3F70E0C0EE
:10063000C0C0E0703F1F00007FFFC1C1C1C1C1E366
:10064000773E1C00001F3F70E0C0C0C0E0703F1F3D
:10065000000000000001FFFF01000000D5F08D1434
:10066000A1C881CFD9F1AF2000FFD5ABD5ABD5ABB9
:10067000FF0808CEB38F838FB3CE00DEFFFFFFFFEE
:10068000FFEE00080800DEBF939F93EE00CEFFFF51
:10069000FFFFFFCE000808DEB1919191B1DE00EEC0
:1006A000FFFFFFFFFFCE00080800EE939F93BFDE21
:1006B00000080B000202020000090400000102020F
:1006C0000000052400100105240101010424020694
:1006D00005240600010705810310004009040100FC
:1006E000020A00000007050202400000070583021D
:1006F0004000000403090412010002EF020140411E
:1007000023368000010102030141726475696E6F36
:10071000204C4C430041726475696E6F204C656FCC
:100720006E6172646F00B30A11241FBECFEFDAE06E
:10073000DEBFCDBF11E0A0E0B1E0E0E8FFE102C024
:1007400005900D92AC33B107D9F726E0ACE3B1E0E8
:1007500001C01D92A731B207E1F713E0C4E9D3E06D
:1007600004C02197FE010E94B80FC339D107C9F711
:100770000E94D00A0C94BE0F0C94000080E0E3ECC1
:10078000F1E081118FEF0024819381938193819314
:100790000394D1F70895E3ECF1E0A0E0B8E0008025
:1007A0000EBC8111012C1197A0FDFDCF0192B9F76C
:1007B0000DB408954F925F926F927F928F929F92A5
:1007C000AF92BF92CF92DF92EF92FF920F931F935F
:1007D000CF93DF93FB01E00FF11D1E161F060CF0F7
:1007E0008AC0603471050CF086C0DB0177FF04C05D
:1007F000AA27BB27A61BB70BA770BB27EB0177FD6A
:100800002796E3E0D595C795EA95E1F777FF07C00E
:10081000219768E070E0FB01EA1BFB0BDF0130E091
:10082000069506950695802E912C8A01AE01569567
:10083000542F442757954795480F591F4D535E4FE6
:10084000BE01E0E8F0E07F01E81AF90A88E090E0F4
:100850003C016A1A7B0A6F3FFFEF7F070CF43BC035
:1008600090E080E05A01E0E8AE0EB11C6F3F7607E1
:1008700009F452C0FC01E00FF11FE4916A01C80EB7
:10088000D91EF0E02F010A2E01C0440C0A94EAF7A9
:10089000F6015080452840821097B1F0673071050D
:1008A00099F0F801E80FF91FE4916501C80ED91E0F
:1008B000F0E02F01062C02C0559447940A94E2F709
:1008C000F6015080452840820196821793071CF458
:1008D000E816F90659F66F5F7F4F020F131F405855
:1008E0005F4FCB018C1B9D0B8815990524F4683054
:1008F000710509F0B0CFDF91CF911F910F91FF905B
:10090000EF90DF90CF90BF90AF909F908F907F90AF
:100910006F905F904F900895109709F0C2CFD4CF99
:10092000FC018091C201882311F13FB7F89482E065
:100930008093E9002091F200822F90E018161906AA
:1009400014F481E090E0882339F0289844E640933D
:10095000C1014091F1004083222339F02091F2003F
:10096000211103C02BE62093E8003FBF08958FEFCD
:100970009FEF08952FB7F89483E08093E90090915A
:10098000E800892F807295FF04C09091F20080E406
:10099000891B2FBF08958091B90181110DC082E09C
:1009A0008093B50184E08093B6011092B801109253
:1009B000B70181E08093B90185EB91E00895CF9371
:1009C000DF931F92CDB7DEB76983DC01ED91FC9117
:1009D0000280F381E02D41E050E0BE016F5F7F4F68
:1009E00009950F90DF91CF91089583E08093E900FE
:1009F0008091F200882319F08AE38093E80008953B
:100A00000E94BA0490E00895CF93DF931F92CDB770
:100A1000DEB7FC018485958597FD08C02FEF3FEF79
:100A2000358724870F90DF91CF910895CE010196ED
:100A30000E949004019719F4898190E0F3CF8FEF21
:100A40009FEFF0CF0F931F93CF93DF931F92CDB7FC
:100A5000DEB78C01FC018485958597FF0BC0CE0124
:100A600001960E949004019771F4898190E0F80149
:100A700095878487F801848595850F90DF91CF91C4
:100A80001F910F9108958FEF9FEFF1CFFC018485A7
:100A9000958597FD0BC09FB7F89482E08093E9009D
:100AA0008091F2009FBF90E0019608959FB7F8945F
:100AB00082E08093E9008091F2009FBF90E008956A
:100AC0004091AF015091B0012091AD013091AE0144
:100AD00042175307B4F49091E8009570E1F39091B8
:100AE000E80092FD19C08093F1008091AF019091D0
:100AF000B00101968F739927892B19F48EEF80939B
:100B0000E8008091AF019091B00101969093B001FF
:100B10008093AF0181E0089580E00895DF92EF9225
:100B2000FF920F931F93CF93DF93D82E8A01EB018F
:100B30007B01E40EF51ECE15DF0559F0D7FE12C07D
:100B4000FE0184910E94600521968111F4CF0FEF80
:100B50001FEFC801DF91CF911F910F91FF90EF9090
:100B6000DF9008958881EECF0F931F93CF93DF938B
:100B70001F92CDB7DEB782E0898342E450E061EB9B
:100B800076E080E80E948E050E94CB04DC0112967C
:100B90000D911C910115110589F0D801ED91FC9181
:100BA0000280F381E02DBE016F5F7F4FC801099580
:100BB00097FD04C0F80100851185ECCF89810F9065
:100BC000DF91CF911F910F910895615030F02091E6
:100BD000F100FC0120830196F8CF289884E68093E9
:100BE000C10108953FB7F8948091A9019091AA019D
:100BF000A091AB01B091AC0126B5A89B05C02F3FD9
:100C000019F00196A11DB11D3FBFBA2FA92F982F32
:100C10008827BC01CD01620F711D811D911D42E02D
:100C2000660F771F881F991F4A95D1F708958F92F5
:100C30009F92AF92BF92CF92DF92EF92FF926B01A1
:100C40007C010E94F2054B015C01C114D104E10456
:100C5000F104B9F00E94F205681979098A099B0923
:100C6000683E73408105910580F321E0C21AD108E6
:100C7000E108F10888EE880E83E0981EA11CB11CE3
:100C8000E4CFFF90EF90DF90CF90BF90AF909F9018
:100C90008F9008958F929F92AF92BF92CF92DF92E2
:100CA000EF92FF920F931F93CF93DF936C017B0121
:100CB0008A0180911201882309F45CC08091C201ED
:100CC000882309F457C08091B40180FF05C080914A
:100CD000E00082608093E000E801B12C8AEFA82E4A
:100CE00093E0892E2AE3922E209711F4BB20D9F1AC
:100CF0000E94BA0481110AC0AA94AA20D9F161E025
:100D000070E080E090E00E941706EECF8C171D0681
:100D100011F00CF08C2F9FB7F8948092E90020918D
:100D2000E80025FD02C09FBFDFCF282F30E0C21BA7
:100D3000D30BF701815020F041914093F100FACF9D
:100D4000E20EF31EBB2021F09092E800B12CEBCF15
:100D50008091E80085FDE7CF9092E800BB24B39432
:100D6000209709F3F3CF5D9884E68093B3011016C2
:100D700011063CF081E090E0F6019383828310E05D
:100D800000E0C801DF91CF911F910F91FF90EF908C
:100D9000DF90CF90BF90AF909F908F900895AF92CB
:100DA000BF92CF92DF92EF92FF920F931F93CF9358
:100DB000DF936C017B018B01040F151FEB015E01BA
:100DC000AE18BF08C017D10759F06991D601ED914F
:100DD000FC910190F081E02DC6010995892B79F7EE
:100DE000C501DF91CF911F910F91FF90EF90DF90A0
:100DF000CF90BF90AF9008952D9A0895BC0190E0D8
:100E000080E00C9417068FB18095807F669B886088
:100E10001C9B84600895AF92BF92CF92DF92EF92B5
:100E2000FF920F931F93CF93DF936D3079F0C091B2
:100E3000A201D091A3016A30B1F41092A1011092E5
:100E4000A0012896D093A301C093A20181E090E075
:100E5000DF91CF911F910F91FF90EF90DF90CF9096
:100E6000BF90AF9008954091A0015091A10185E0FD
:100E7000689FF0011124E455FF4F9A01C12C80E1D5
:100E8000E82EA5E070E0CA1621F0CF01019674911A
:100E9000FC0110E000E0B72FB170DB2E20383105E7
:100EA000D0F4CE01800F911F80349105A0F461E051
:100EB00081FD64E080FD660F82FD6295887FE89E7B
:100EC000D0011124A20FF62EAD53BE4F8C91DD2020
:100ED000A9F0862B8C9376950F5F1F4F0830110574
:100EE000D1F6C3942F5F3F4F86E0C812CACF4A5F46
:100EF0005F4F5093A1014093A001A8CFF0948F21A0
:100F0000E9CFCF93C82F0E940307982F9C2381E03D
:100F10009C1380E0CF91089580E00C94CB0308955A
:100F200090E080E008950C943F0F1F920F920FB64F
:100F30000F9211248F939F938091E1009091E10093
:100F4000937F9093E10083FF0FC01092E90091E03E
:100F50009093EB001092EC0092E39093ED001092CE
:100F6000C20198E09093F00082FF22C093E090933A
:100F7000E9009091F200992319F09AE39093E80028
:100F80009091B301992341F09091B30191509093C6
:100F9000B301911101C05D9A9091C101992341F073
:100FA0009091C10191509093C101911101C0289A73
:100FB00084FF18C08091E2008E7E81608093E20001
:100FC0008091E1008F7E8093E1008091B4018E7E5C
:100FD00080618093B4019F918F910F900FBE0F900D
:100FE0001F90189580FFF7CF8091E2008E7E806180
:100FF0008093E2008091E1008E7E8093E1008091F9
:10100000B4018E7E8160E5CF1F920F920FB60F92D2
:101010001124CF92DF92EF92FF920F931F932F93A1
:101020003F934F935F936F937F938F939F93AF9370
:10103000BF93EF93FF93CF93DF93CDB7DEB76C975A
:10104000DEBFCDBF1092E9008091E80083FF25C08C
:1010500068E0CE0145960E94E50582EF8093E800A6
:101060008D8987FF39C09091E80090FFFCCF982FC1
:10107000907609F034C19E894F89588D2F89F88C5C
:10108000911131C0803861F58091B2018093F100F7
:101090001092F1008EEF8093E8006C960FB6F894F2
:1010A000DEBF0FBECDBFDF91CF91FF91EF91BF911A
:1010B000AF919F918F917F916F915F914F913F91F0
:1010C0002F911F910F91FF90EF90DF90CF900F9095
:1010D0000FBE0F901F9018959EEF9093E800C7CF1A
:1010E0001092F100D5CF913059F48111D3CF413016
:1010F000510581F68091B2018D7F8093B201CACFF4
:10110000933049F48111C6CF4130510519F68091D1
:10111000B2018260F2CF953041F48091E80080FF07
:10112000FCCF20682093E300B5CF963009F0A9C02A
:101130000B8D1C8D22E01092E9001092B0011092EC
:10114000AF01F2122EC01092AE011092AD010E94BA
:10115000B4051F8299E09983FA8291E09E8390EA18
:1011600098879AEF99872091AF013091B001275F5E
:101170003F4F3C832B838D831092E9001092B00186
:101180001092AF011093AE010093AD0149E050E021
:10119000BE016F5F7F4F80E00E948E050E94B40504
:1011A00079CF1093AE010093AD010E94CB04DC0116
:1011B00012960D911C910115110509F451C1D80128
:1011C000ED91FC910480F581E02DBE016B5E7F4FB7
:1011D000C8010995009709F03EC1F8010085118505
:1011E000EACFF3E0FF120EC08F89882309F440C0D4
:1011F000823061F440E860E185E197E00E94800A76
:10120000811148CF81E28093EB0047CF813029F4F0
:1012100040E86BE089E097E0F1CF833099F70E94D6
:10122000CB04DC011296ED90FC908E010F5F1F4FF6
:101230006801E114F10479F0D701ED91FC91068089
:10124000F781E02DB801C7010995080F111DF701BD
:10125000E084F184EECFD8011C92F60101900020C9
:10126000E9F73197BF016C197D0940E0C601C6CF8F
:1012700063EF76E0FB01449150E080E80E948E0528
:1012800009CF973009F4BECF983021F481E08093E4
:10129000F10000CF993009F0FDCE837009F0B2CF94
:1012A000E8E1F1E081E031E096E32191222371F061
:1012B0008093E9003093EB00DF0111972C9120938C
:1012C000EC009093ED008F5F873079F78EE7809385
:1012D000EA001092EA008F898093C201DBCE8B8DE9
:1012E0009C8D1092E9001092B0011092AF01909382
:1012F000AE018093AD01898D811192C08E899D8947
:10130000913A49F4813209F07DCF47E050E06BE03B
:1013100071E080E0B3CF913209F074CF833269F489
:101320008F89988DB0E0A0E0809307019093080129
:10133000A0930901B0930A01ADCE803269F4809187
:10134000E80082FFFCCF67E08BE091E00E94E505BA
:101350008BEF8093E8009ECE823209F09BCE8F897E
:1013600080931201EEEFFFE7859194918B3F9C4DA6
:1013700051F1E0E0F8E080910B0190910C01A09117
:101380000D01B0910E01803B9440A105B105F1F42F
:101390008091120180FD1AC0EE3F8AE0F80789F5BE
:1013A00087E797E791838083809160008093B10104
:1013B00088E19BE00FB6F894A895809360000FBE7B
:1013C0009093600067CEEEEFFAE0D5CF80819181F7
:1013D0008737974709F05ECEA895809160008861B5
:1013E000809360008091B10180936000EE3F2AE01D
:1013F000F20789F08091FE0A9091FF0A9183808321
:1014000049CE808191818737980751F29093FF0AE6
:101410008093FE0AC5CF1092FF0A1092FE0A3ACEC0
:101420000E94CB04DC0112960D911C91011511054F
:1014300009F4E8CED801ED91FC910190F081E02D06
:10144000BE016B5E7F4FC8010995811123CEF80163
:1014500000851185EBCF181619060CF41BCED2CEE1
:10146000F1E0FF12BECE67EF76E004CF1F920F923D
:101470000FB60F9211242F933F938F939F93AF93A7
:10148000BF938091A5019091A601A091A701B09171
:10149000A8013091A40123E0230F2D3758F50196C0
:1014A000A11DB11D2093A4018093A5019093A601D5
:1014B000A093A701B093A8018091A9019091AA01DE
:1014C000A091AB01B091AC010196A11DB11D80931B
:1014D000A9019093AA01A093AB01B093AC01BF9175
:1014E000AF919F918F913F912F910F900FBE0F90D1
:1014F0001F90189526E8230F0296A11DB11DD2CF8B
:10150000EF92FF920F931F93CF93DF93F82E192F33
:10151000E62E042F81E0860F880F0E94600583E08D
:101520000E946005CF2DD12FEC0EFD2EF11CCE15A3
:10153000DF05B9F007FF13C0FE0184910E9460052A
:10154000182F80E00E946005812321968111EFCF42
:10155000DF91CF911F910F91FF90EF9008958881B7
:10156000EDCF81E0F5CFE3ECF5E01382128288EE57
:1015700093E0A0E0B0E084839583A683B78382E202
:1015800091E0918380838FEF9FEF95878487E3E1DC
:10159000F6E01382128284E391E0918380830895C0
:1015A000CF93DF9300D000D000D0CDB7DEB77894D2
:1015B00084B5826084BD84B5816084BD85B5826058
:1015C00085BD85B5816085BD80916E008160809309
:1015D0006E00109281008091810082608093810072
:1015E0008091810081608093810080918000816082
:1015F000809380008091910082608093910080911F
:10160000910081608093910080919000816080932F
:1016100090008091C10084608093C1008091C100DE
:1016200082608093C1008091C10081608093C1007D
:101630008091C30081608093C3008091C00082606C
:101640008093C0008091C20081608093C20080912D
:101650007A00846080937A0080917A00826080931F
:101660007A0080917A00816080937A0080917A007C
:10167000806880937A001092C2011092B201109299
:10168000B4018091D70081608093D70080EA809375
:10169000D80089B5806189BD89B5826089BD09B4EA
:1016A00000FEFDCF61E070E080E090E00E94170650
:1016B0008091D8008F7C80618093D8008091E00079
:1016C000807F8093E0008091E1008E7E8093E10036
:1016D0008DE08093E200559A209A81EC80937C0003
:1016E00085B1806F85B984B1877E84B984B1876EF6
:1016F00084B95E9A5F988AB1806D8AB9769A6E983D
:1017000081B3806F81BB899880B38D7080BB80E589
:101710008CBD81E08DBD85E090E00E94FE065F9A61
:1017200085E090E00E94FE065E985C98ECE5F6E0AD
:1017300084918EBD00000DB407FEFDCF319626E0EA
:10174000E936F207A9F75C9A81E8809364008091FA
:1017500065008160809365000E948C0780E80E948C
:1017600081078823A9F05C9885EA8EBD00000DB43E
:1017700007FEFDCF5C9A2E982F982D9880916400DB
:1017800080628093640081E083BF889513BEFCCFA4
:1017900084E00E948107882309F448C02D9884E8DA
:1017A0000E9481078823E1F00E94FC0688EC90E00B
:1017B0000E94FE062F9882E090E00E943F0F8F3F2C
:1017C00029F06FEF82E090E00E94470F84EF91E0F4
:1017D0000E94FE062F9A84E80E9481078111FBCFA8
:1017E00084E10E9481078823E1F00E94FC0688ECD6
:1017F00090E00E94FE062E9882E090E00E943F0F4B
:10180000882329F060E082E090E00E94470F84EF97
:1018100091E00E94FE062E9A84E10E9481078111C8
:10182000FBCF88EC90E00E94FE06B2CF0E94FC063F
:1018300082E090E00E949307882309F47FC03E9ADB
:101840003F9A81E090E00E949307182F147081FF67
:1018500010C011112E9841EF5FEF5A83498380E445
:101860000E948107882309F46CC02E9A2F9A0E9447
:10187000FC0682E390E00E94FE060E9403078111AD
:10188000F8CF0E94BE031092A3011092A201109201
:10189000A1011092A00100E4E02E01E0F02E1CE076
:1018A0008AE0882E912CA12CB12C94E1D92EFA82B9
:1018B000E98208E00E94E70EA50194010E94550FFD
:1018C000E981FA81672B682B692B09F09FC0D082D0
:1018D000015029813A812F5F3F4F3A8329830111BB
:1018E000E9CF115038E0E30EF11C1111E0CF81E295
:1018F000809300011DE8412E16E0512EFF24F39441
:10190000A8E0EA2EB0E02B2EB0E03B2E8FB7F89483
:101910004091A5015091A6016091A7017091A80185
:101920008FBF80913E01882309F472C010923E015E
:101930002114310459F30E940000E0CF3E983F98F3
:1019400080CF112331F089819A81049711F42E9A66
:101950002F9881E00E94CB0300E128E54CEA55E096
:1019600069817A8184E190E00E94DA030E948C0709
:101970008FE090E00E94FE06E981FA813196FA83B9
:10198000E983799709F06BCF112311F02F9A2D98E5
:1019900080E991E00E94FE060E94FC0681E090E052
:1019A0000E94930780FF65CF8AE090E00E94930732
:1019B0009FEF980F9E3F08F05CCF22E330E030931A
:1019C000A1012093A00128E330E03093A3012093EC
:1019D000A2012BE030E03A832983682F83E196E06F
:1019E0000E940B0789819A810E94930749815A813D
:1019F0004F5F5F4F5A8349834131510571F70E9410
:101A00008C0788EE93E00E94FE0633CF108260CFF1
:101A100080913F01942F981B892F90910001891785
:101A200040F48F5F891708F083CFF3BE889513BE0B
:101A30007FCFF0923E0140933F0180913C01909115
:101A40003D01019690933D0180933C010E94BE03AD
:101A50001092A3011092A2011092A1011092A00174
:101A6000F0E4AF2EF1E0BF2ED12CC12C1A821982E6
:101A7000E981FA81EA0DFB1D8081843171F408E06F
:101A800028E049E656E069817A81E3E0660F771F36
:101A9000EA95E1F7C6010E94DA03E981FA813196FD
:101AA000FA83E983389721F7F8E0AF0EB11C28E0FC
:101AB000C20ED11C30E6C316D104C1F680E20E94EA
:101AC0008107882389F08091020147EA56E050930C
:101AD000060140930501EFE9F6E0F0930401E0937D
:101AE000030181508093020180E80E9481078823CE
:101AF00079F08091010125E936E0309306012093C9
:101B0000050150920401409203018150809301012C
:101B100080E40E948107882389F08091020143E8D4
:101B200056E05093060140930501EBE7F6E0F09391
:101B30000401E09303018F5F8093020180E10E9422
:101B40008107882379F08091010121E736E0309305
:101B500006012093050150920401409203018F5F1A
:101B60008093010120910501309106012115310575
:101B700009F4DEC0409102014B83642F440F770BC0
:101B8000F901F491F983F9013196E491B9800B2DB3
:101B900010E0D801A60FB71F1A161B060CF0C8C01C
:101BA000F09101018F2F0F2E000C990BAC014E0FFD
:101BB000511D141615060CF0BBC0803491050CF0B5
:101BC000B7C0F7708F2E6C0197FF03C047E0C40EBB
:101BD000D11C53E0D594C7945A95E1F76C2C97FF2C
:101BE00005C0882019F066246A946C0C8827992710
:101BF000861B970B77FD02C090E080E040E8742ED2
:101C00005B81751AA038B1050CF47980781AA62D7D
:101C1000062C000CBB0BFFEF6F160CF07FC0BA2E2A
:101C2000B094BB8241E0FE2FF77009F440E0E695E6
:101C3000E695E695B42EBE0EAB0DB11D199714F0C6
:101C4000BE2CB6189B80960C492D50E84503F00138
:101C500011246E0F7F1F680F791F49815B81459F9B
:101C6000800D911D11242E5F3F4F280F391FC82C66
:101C7000082C000CDD08A0910301B09104018A0F2B
:101C80009B1F6B0C691409F453C0DB01AD53BE4FAD
:101C90001E821D82ED81E71508F042C0ED81FE81B4
:101CA000E80FF91F449150E00C2C02C0440F551F5F
:101CB0000A94E2F7FA01E095F095FA83E983ED8161
:101CC000FE81E20FF31FE491F0E0AF010C2C02C0A3
:101CD000440F551F0A94E2F75C834B8397FC05C0C1
:101CE000BC905981B522B42ABC92882079F0E6E0F4
:101CF000E91564F05D01F0E8AF0EB11CF50140811B
:101D0000FA814F235C81452BF50140834D815E8133
:101D10004F5F5F4F5E834D831196BCCF1B8282CF96
:101D20009394200F311F800F911F60587F4FAACFCF
:101D30000E948C07FDCD8F929F92AF92BF92CF925F
:101D4000DF92EF92FF92CF93DF93EC01688179816C
:101D50008A819B81611571058105910521F464E2F9
:101D600079ED8BE597E02DE133EF41E050E00E9403
:101D7000550F49015A019B01AC01A7EAB1E40E9449
:101D8000740F6B017C01ACEEB4EFA50194010E94CD
:101D9000820FC60ED71EE81EF91EF7FE06C081E0B0
:101DA000C81AD108E10880E8F80AC882D982EA8214
:101DB000FB82C701B6019F77DF91CF91FF90EF9033
:101DC000DF90CF90BF90AF909F908F9008958F92AB
:101DD0009F92AF92BF92CF92DF92EF92FF9260916B
:101DE00013017091140180911501909116016115F4
:101DF00071058105910521F464E279ED8BE597E0A9
:101E00002DE133EF41E050E00E94550F49015A01A6
:101E10009B01AC01A7EAB1E40E94740F6B017C0145
:101E2000ACEEB4EFA50194010E94820FC60ED71E3E
:101E3000E81EF91EF7FE06C081E0C81AD108E108C5
:101E400080E8F80AC0921301D0921401E0921501C3
:101E5000F0921601C701B6019F77FF90EF90DF90D7
:101E6000CF90BF90AF909F908F9008956093130193
:101E70007093140180931501909316010895F999B8
:101E8000FECF92BD81BDF89A992780B50895262F7F
:101E9000F999FECF1FBA92BD81BD20BD0FB6F8944F
:101EA000FA9AF99A0FBE01960895052E97FB1EF433
:101EB00000940E946C0F57FD07D00E94870F07FC0B
:101EC00003D04EF40C946C0F5095409530952195AD
:101ED0003F4F4F4F5F4F0895909580957095619556
:101EE0007F4F8F4F9F4F08950E94A90FA59F900D80
:101EF000B49F900DA49F800D911D11240895B7FFEC
:101F00000C94740F0E94740F821B930B0895A1E22E
:101F10001A2EAA1BBB1BFD010DC0AA1FBB1FEE1F63
:101F2000FF1FA217B307E407F50720F0A21BB30BAE
:101F3000E40BF50B661F771F881F991F1A9469F72A
:101F400060957095809590959B01AC01BD01CF0186
:101F50000895A29FB001B39FC001A39F700D811D82
:101F60001124911DB29F700D811D1124911D0895A2
:101F7000EE0FFF1F0590F491E02D0994F894FFCF28
:101F80001020408D067106FFFFFFFF00E1000000FA
:101F90000000000100000000C1808100000000007E
:101FA0000000DF044A060005F50446050405220585
:0C1FB000000000000B07CF0690078F0711
:00000001FF
