:100000000C94E4050C940C060C940C060C940C0651
:100010000C940C060C940C060C940C060C940C0618
:100020000C940C060C940C060C94970E0C94060F72
:100030000C940C060C940C060C940C060C940C06F8
:100040000C940C060C940C060C940C060C940C06E8
:100050000C940C060C940C060C940C060C943811A1
:100060000C940C060C940C060C940C060C940C06C8
:100070000C940C060C940C060C940C060C940C06B8
:100080000C940C060C940C060C940C060C940C06A8
:100090000C940C060C940C060C940C060C940C0698
:1000A0000C940C060C940C060C940C06FF818181B8
:1000B000818181FF18284F814F2818001814F28180
:1000C0004F28180000000000000000FF1E214182A0
:1000D00041211E00FFF191FD85FF81FF7C8383ABF1
:1000E00093837C00FC8393BB9383FC000000060990
:1000F000F90600003060300003060300FFD5ABD5E1
:10010000ABD5ABFF00000000003E5B4F5B3E3E6B9B
:100110004F6B3E1C3E7C3E1C183C7E3C181C577DA1
:10012000571C1C5E7F5E1C00183C1800FFE7C3E7ED
:10013000FF0018241800FFE7DBE7FF30483A060EFF
:100140002629792926407F050507407F05253F5A46
:100150003CE73C5A7F3E1C1C08081C1C3E7F1422B6
:100160007F22145F5F005F5F06097F017F00668961
:10017000956A606060606094A2FFA29408047E04A7
:100180000810207E201008082A1C08081C2A0808CD
:100190001E101010100C1E0C1E0C30383E3830068D
:1001A0000E3E0E06000000000000005F0000000789
:1001B000000700147F147F14242A7F2A12231308B7
:1001C000646236495620500008070300001C224193
:1001D000000041221C002A1C7F1C2A08083E080837
:1001E00000807030000808080808000060600020E7
:1001F000100804023E5149453E00427F40007249CA
:100200004949462141494D331814127F102745456D
:1002100045393C4A49493141211109073649494983
:1002200036464949291E00001400000040340000F1
:10023000000814224114141414140041221408025A
:10024000015909063E415D594E7C1211127C7F49CD
:100250004949363E414141227F4141413E7F494922
:1002600049417F090909013E414151737F0808084E
:100270007F00417F41002040413F017F081422411F
:100280007F404040407F021C027F7F0408107F3E79
:100290004141413E7F090909063E4151215E7F09E6
:1002A000192946264949493203017F01033F40404D
:1002B000403F1F2040201F3F4038403F6314081438
:1002C0006303047804036159494D43007F41414170
:1002D0000204081020004141417F04020102044051
:1002E00040404040000307080020545478407F28D5
:1002F0004444383844444428384444287F385454CB
:10030000541800087E090218A4A49C787F080404ED
:100310007800447D40002040403D007F102844008C
:1003200000417F40007C047804787C08040478381D
:1003300044444438FC1824241818242418FC7C084D
:10034000040408485454542404043F44243C4040CA
:10035000207C1C2040201C3C4030403C442810287D
:10036000444C9090907C4464544C440008364100C6
:100370000000770000004136080002010204023C40
:100380002623263C1EA1A161123A4040207A38540F
:10039000545559215555794121545478412155548A
:1003A000784020545579400C1E52721239555555DB
:1003B00059395454545939555454580000457C41C6
:1003C0000002457D420001457C40F0292429F0F0DF
:1003D000282528F07C545545002054547C547C0A30
:1003E000097F4932494949323248484832324A48FD
:1003F00048303A4141217A3A42402078009DA0A0FD
:100400007D39444444393D4040403D3C24FF242450
:10041000487E4943662B2FFC2F2BFF0929F620C06D
:10042000887E090320545479410000447D413048BE
:10043000484A32384040227A007A0A0A727D0D1901
:10044000317D2629292F28262929292630484D4063
:1004500020380808080808080808382F10C8ACBA5F
:100460002F102834FA00007B000008142A142222DE
:10047000142A14089500220095AA005500AAAA552E
:10048000AA55AA000000FF00101010FF0014141459
:10049000FF001010FF00FF1010F010F0141414FCF7
:1004A000001414F700FF0000FF00FF1414F404FC14
:1004B000141417101F10101F101F1414141F0010F5
:1004C0001010F0000000001F101010101F1010106E
:1004D00010F010000000FF1010101010101010107D
:1004E000FF10000000FF140000FF00FF00001F10BD
:1004F000170000FC04F414141710171414F404F477
:100500000000FF00F714141414141414F700F71467
:100510001414171410101F101F141414F4141010B6
:10052000F010F000001F101F0000001F140000005A
:10053000FC140000F010F01010FF10FF141414FF52
:10054000141010101F00000000F010FFFFFFFFFF4D
:10055000F0F0F0F0F0FFFFFF0000000000FFFF0FE1
:100560000F0F0F0F38444438447C2A2A3E147E0271
:10057000020606027E027E02635549416338444406
:100580003C04407E201E2006027E020299A5E7A5BB
:10059000991C2A492A1C4C7201724C304A4D4D302C
:1005A0003048784830BC625A463D3E494949007E51
:1005B0000101017E2A2A2A2A2A44445F44444051E8
:1005C0004A444040444A51400000FF0103E080FF9C
:1005D000000008086B6B083612362436060F090F28
:1005E00006000018180000001010003040FF010144
:1005F000001F01011E00191D1712003C3C3C3C006D
:1006000000000000F0F89C8E8783878E9CF8F00035
:1006100000FEFF0303030303070EFCF80000FEFFC8
:100620000303030303070EFCF80000FFFF000000B4
:1006300000000000FFFF0000FEFF8383838383C769
:10064000EE7C380000F8FC0E07030303070EFCF8ED
:1006500000003F7FE0C08080C0E07F3FFFFF0101DE
:100660000101010101FFFF0000FFFF0C0C0C0C1C3D
:100670003E77E3C100007FFFC0C0C0C0C0E0703F54
:100680001F00001F3F70E0C0C0C0E0703F1F0000AF
:100690007FFFC1C1C1C1C1E3773E1C00001F3F7095
:1006A000E0C0C0C0E0703F1F000000000001FFFF7D
:1006B00001000000D5F08D14A1C881CFD9F1AF2081
:1006C0000032303233204A59554A59554E00505263
:1006D00045535320410056312E31000000000000E8
:1006E0000000FC04F49494949494949C00FC04F40E
:1006F00014141414F404FC00FC04F414142428C886
:1007000010F000FC04F494949494F404FC00FC04B1
:10071000FC0000000000001C14F404F4141C001C75
:1007200014F404F4141C00FC04F49494949494942D
:100730009C0000000000000000000000000000001D
:1007400000000000000000000000000000000000A9
:100750000000000000000000000000000000000099
:100760000000737272727272727E7E7F007F7E7F73
:10077000707070707F7E7F007F7E7F707078383FF2
:100780001E1F007F7E7E020202027E7E7F007F7E31
:100790007F70707070700070707F7E7F707000006E
:1007A000007F7E7F0000007F7E7E727272727272A6
:1007B00073000000000000000000000000000000C6
:1007C0000000000000000000000000000000000029
:1007D0000000000000000000000000000000000019
:1007E0000000000000000000000000000000000009
:1007F00000000000000000000000000000000000F9
:1008000000000000000000000000000000000000E8
:1008100000000000000000000000000000000000D8
:1008200000000000000000000000000000000000C8
:1008300000000000000000000000000000000000B8
:1008400000000000000000000000000000000000A8
:100850000000000000000000000000000000000098
:100860000000000000000000000000000000000088
:100870000000000000000000000000000000000078
:100880000000000000000000000000000000000068
:100890000000000000000000000000000000000058
:1008A0000000000000000000000000000000000048
:1008B0000000000000000000000000000000000038
:1008C0000000000000000000000000000000000028
:1008D0000000000000000000000000000000000018
:1008E000000000000000000000CC340A0A0A0A0AD6
:1008F00034CC00000000000000000000E0A0204018
:100900008000000000000000000000000000000067
:1009100000000000000000000000000000000000D7
:1009200000000000000000000000000000000000C7
:1009300000000000000000000000000000000000B7
:1009400000000000000000000000000000000000A7
:100950000000000000000000000000000000000097
:10096000000000000000008040BF40C0C2C74240FD
:1009700020BF90D048A864B452B266CF5DDF4FA6C6
:1009800050AF000000000000000000000000000068
:100990000000000000000000000000000000000057
:1009A0000000000000000000000000000000000047
:1009B0000000000000000000000000000000000037
:1009C0000000000000000000000000000000000027
:1009D0000000000000000000000000000000000017
:1009E000000000B068A864B6532A592D142A160BCB
:1009F000150A050A050201020102010201020100B5
:100A000000000000000000000000000000000000E6
:100A100000000000000000000000000000000000D6
:100A200000000000000000000000000000000000C6
:100A300000000000000000000000000000000000B6
:100A400000000000000000000000000000000000A6
:100A50000000000000000000000000000000000096
:100A60000000000001000000000000000000000085
:100A70000000000000000000000000000000000076
:100A80000000000000000000000000000000000066
:100A90000000000000000000000000000000000056
:100AA0000000000000000000000000000000000046
:100AB0000000000000000000000000000000000036
:100AC0000000000000000000000000000000000026
:100AD000000000000000000000000047414D4520DC
:100AE0004F56455200083E7FFFFFBE080008080829
:100AF0003E59A9D9BE080002080104000000000206
:100B000007020000000000040402050200000000CB
:100B1000000808CEB38F838FB3CE00DEFFFFFFFF48
:100B2000FFEE00080800DEBF939F93EE00CEFFFFAC
:100B3000FFFFFFCE000808DEBF9F9F9FBFDE00EED5
:100B4000FFFFFFFFFFCE00080800EE939F93BFDE7C
:100B500000080B000202020000090400000102026A
:100B600000000524001001052401010104240206EF
:100B70000524060001070581031000400904010057
:100B8000020A000000070502024000000705830278
:100B90004000000403090412010002EF0201404179
:100BA00023368000010102030141726475696E6F92
:100BB000204C4C430041726475696E6F204C656F28
:100BC0006E6172646F00FA1111241FBECFEFDAE07C
:100BD000DEBFCDBF11E0A0E0B1E0E4E5F9E302C083
:100BE00005900D92A235B107D9F726E0A2E5B1E054
:100BF00001C01D92AE35B207E1F715E0C4EED5E0B5
:100C000004C02197FE010E949D1CC33ED107C9F775
:100C10000E942B120C94A81C0C940000E7EFF1E04A
:100C2000A0E0B8E000800EBC8111012C1197A0FD5E
:100C3000FDCF0192B9F70DB408952F923F924F92D4
:100C40005F926F927F928F929F92AF92BF92CF925C
:100C5000DF92EF92FF920F931F93CF93DF9330E0D9
:100C6000F901E80FF91FF7FD96C0803891050CF0E7
:100C700092C0FB01E00FF11DF7FD8DC060347105DE
:100C80000CF089C0DB0177FF04C0AA27BB27A61B95
:100C9000B70BA770BB27EB0177FD2796E3E0D5954F
:100CA000C795EA95E1F777FF07C0219768E070E004
:100CB000FB01EA1BFB0BDF01069506950695602EEE
:100CC000712C7A01AE015695542F442757954795BC
:100CD000480F591F49505E4FBE01E8E0F0E02F0178
:100CE0004A1A5B0A6F3FFFEF7F070CF444C06C01A8
:100CF00010E000E04A01F0E88F0E911CD7FC2EC0F6
:100D00006F3F760709F45AC0F701E00FF11FE49135
:100D10005A01A00EB11EF0E01F010A2E01C0220CE4
:100D20000A94EAF7F5013080232820821097B1F069
:100D30006730710599F0F701E00FF11FE49154015C
:100D4000A00EB11EF0E01F01042C02C035942794C0
:100D50000A94E2F7F5013080232820820F5F1F4FAD
:100D6000FFEFCF1ADF0A021713072CF4E0E8CE16C4
:100D7000D10409F0C3CF6F5F7F4FE20EF31E4058DE
:100D80005F4FFB01EC1BFD0BE615F70524F4683003
:100D9000710509F0A7CFDF91CF911F910F91FF90BF
:100DA000EF90DF90CF90BF90AF909F908F907F900B
:100DB0006F905F904F903F902F900895109709F09B
:100DC000BACFCCCF90915106982329F49091500638
:100DD000982381E009F480E008954F925F927F921A
:100DE0008F929F92AF92BF92CF92DF92EF92FF923B
:100DF0000F931F93CF93DF93DC014115510509F445
:100E0000B9C0FA01F4903196E491CF2DD0E08E0173
:100E1000080F191F101611060CF0ACC08038910590
:100E20000CF0A8C0CB018E0F911D181619060CF0FE
:100E3000A1C0603471050CF09DC0F62FF7707F2EB5
:100E4000CB0177FD0796F3E095958795FA95E1F745
:100E5000F82F77FF04C0772011F0FFEFF80F662717
:100E600077276A1B7B0BB7FD02C070E060E080E86B
:100E7000882E8A1A003811050CF48F2C861A0F2F31
:100E80000F2E000C110BE02EE094FF3F0CF0E12C34
:100E900091E08E2F877009F490E0E695E695E6954F
:100EA0009E0F090F111D0930110514F098E09F1BCA
:100EB0009E2C9F0E092D10E8010360011124AC0D3A
:100EC000BD1DA60FB71FFE9C600D711D11244E5F46
:100ED0005F4F460F571F072D072C000C110B260FD5
:100EE000371F9F0F991509F445C0BD0169507E4F0A
:100EF0007B01D12CC12CC814A8F5F901EC0DFD1D06
:100F0000649170E0002E02C0660F771F0A94E2F72A
:100F100060957095FA01EC0DFD1DE491F0E02F0154
:100F2000002E02C0440C551C0A94E2F797FC05C041
:100F3000F7018081862384298083772061F0F6E0A1
:100F4000F9154CF0570180E8A80EB11CF50180811D
:100F5000872385298083FFEFCF1ADF0A6FEFE61A18
:100F6000F60AC9CF93944C0F5D1F2C0F3D1FA0585C
:100F7000BF4FB8CFDF91CF911F910F91FF90EF90AE
:100F8000DF90CF90BF90AF909F908F907F905F90B9
:100F90004F900895FC018091F601882311F13FB72D
:100FA000F89482E08093E9002091F200822F90E093
:100FB0001816190614F481E090E0882339F0289877
:100FC00044E64093F5014091F1004083222339F03B
:100FD0002091F200211103C02BE62093E8003FBFCF
:100FE00008958FEF9FEF08952FB7F89483E08093D3
:100FF000E9009091E800892F807295FF04C09091DC
:10100000F20080E4891B2FBF08958091ED018111CA
:101010000DC082E08093E90184E08093EA011092A0
:10102000EC011092EB0181E08093ED0189EE91E0FB
:101030000895CF93DF931F92CDB7DEB76983DC01AC
:10104000ED91FC910280F381E02D41E050E0BE0182
:101050006F5F7F4F09950F90DF91CF91089583E0E7
:101060008093E9008091F200882319F08AE380934D
:10107000E80008950E94F40790E00895CF93DF936D
:101080001F92CDB7DEB7FC018485958597FD08C01A
:101090002FEF3FEF358724870F90DF91CF91089591
:1010A000CE0101960E94CA07019719F4898190E048
:1010B000F3CF8FEF9FEFF0CF0F931F93CF93DF937B
:1010C0001F92CDB7DEB78C01FC018485958597FF13
:1010D0000BC0CE0101960E94CA07019771F4898165
:1010E00090E0F80195878487F801848595850F90B5
:1010F000DF91CF911F910F9108958FEF9FEFF1CF67
:10110000FC018485958597FD0BC09FB7F89482E01C
:101110008093E9008091F2009FBF90E001960895CE
:101120009FB7F89482E08093E9008091F2009FBF1E
:1011300090E008954091E3015091E4012091E10194
:101140003091E20142175307B4F49091E800957092
:10115000E1F39091E80092FD19C08093F100809135
:10116000E3019091E40101968F739927892B19F47B
:101170008EEF8093E8008091E3019091E401019665
:101180009093E4018093E30181E0089580E0089565
:10119000DF92EF92FF920F931F93CF93DF93D82E9E
:1011A0008A01EB017B01E40EF51ECE15DF0559F037
:1011B000D7FE12C0FE0184910E949A0821968111E7
:1011C000F4CF0FEF1FEFC801DF91CF911F910F9167
:1011D000FF90EF90DF9008958881EECF0F931F93DB
:1011E000CF93DF931F92CDB7DEB782E0898342E4CD
:1011F00050E061E57BE080E80E94C8080E94050895
:10120000DC0112960D911C910115110589F0D80190
:10121000ED91FC910280F381E02DBE016F5F7F4F65
:10122000C801099597FD04C0F80100851185ECCF30
:1012300089810F90DF91CF911F910F910895615097
:1012400030F02091F100FC0120830196F8CF28981E
:1012500084E68093F50108953FB7F8948091DD010D
:101260009091DE01A091DF01B091E00126B5A89B2D
:1012700005C02F3F19F00196A11DB11D3FBFBA2F28
:10128000A92F982F8827BC01CD01620F711D811DE8
:10129000911D42E0660F771F881F991F4A95D1F76D
:1012A00008958F929F92AF92BF92CF92DF92EF926A
:1012B000FF926B017C010E942C094B015C01C1145F
:1012C000D104E104F104B9F00E942C0968197909EC
:1012D0008A099B09683E73408105910580F321E0EE
:1012E000C21AD108E108F10888EE880E83E0981E42
:1012F000A11CB11CE4CFFF90EF90DF90CF90BF9086
:10130000AF909F908F9008958F929F92AF92BF92CF
:10131000CF92DF92EF92FF920F931F93CF93DF93C1
:101320006C017B018A0180911F01882309F45CC054
:101330008091F601882309F457C08091E80180FF6D
:1013400005C08091E00082608093E000E801B12C4C
:101350008AEFA82E93E0892E2AE3922E209711F48B
:10136000BB20D9F10E94F40781110AC0AA94AA20D7
:10137000D9F161E070E080E090E00E945109EECF89
:101380008C171D0611F00CF08C2F9FB7F8948092EB
:10139000E9002091E80025FD02C09FBFDFCF282F84
:1013A00030E0C21BD30BF701815020F041914093F4
:1013B000F100FACFE20EF31EBB2021F09092E8007C
:1013C000B12CEBCF8091E80085FDE7CF9092E8004B
:1013D000BB24B394209709F3F3CF5D9884E6809300
:1013E000E701101611063CF081E090E0F6019383CE
:1013F000828310E000E0C801DF91CF911F910F912F
:10140000FF90EF90DF90CF90BF90AF909F908F9024
:101410000895AF92BF92CF92DF92EF92FF920F9317
:101420001F93CF93DF936C017B018B01040F151F7A
:10143000EB015E01AE18BF08C017D10759F06991E2
:10144000D601ED91FC910190F081E02DC601099546
:10145000892B79F7C501DF91CF911F910F91FF90F3
:10146000EF90DF90CF90BF90AF9008952E9A08959F
:10147000BC0190E080E00C9451098FB18095807F91
:10148000669B88601C9B846008952F923F924F92C8
:101490005F926F927F928F929F92AF92BF92CF9204
:1014A000DF92EF92FF920F931F93CF93DF9300D0C1
:1014B00000D01F92CDB7DEB79C838B836A3059F57D
:1014C000DC0155968C91B8E08B9F90011124EB8143
:1014D000FC8181899289820F931F928B818B108A64
:1014E000178681E090E00F900F900F900F900F9073
:1014F000DF91CF911F910F91FF90EF90DF90CF90F0
:10150000BF90AF909F908F907F906F905F904F9023
:101510003F902F9008956D3021F3AB81BC811F96D1
:101520008D919C915097803891050CF087C0519611
:10153000CD90DC90B0E4CB16D1040CF07FC0EB81F1
:10154000FC819588E5E09C019E9E200D311D1124B3
:10155000121613060CF072C0E92CF12C9701B3E0BF
:10156000220F331FBA95E1F72C0D3D1D12161306FD
:101570000CF064C0AB81BC8154965C905497539638
:101580004C906E9FF0011124EC5FFE4F70E02491AF
:10159000753009F420E05601A8E06A2E222E312C85
:1015A000642D20FF652D611103C0541409F437C068
:1015B000AC0161706A834983242F281B291578F5B3
:1015C00010E000E0091540F54038510510F598018C
:1015D0002A0D3B1D20343105E0F460E1762E898030
:1015E00061E021FD64E020FD660F22FD6295287F09
:1015F000729ED0011124A80D6D83A950BE4F2C916D
:101600003A81862E822A311103C08D8080948222F5
:101610008C920F5F1F4FD6CF4F5F5F4FCCCF9101A2
:10162000359527956A94AE0CBF1C6110B7CF7F5FCC
:1016300031968E0D9F1D763009F0A9CFAB81BC810C
:1016400055962C915597422F50E01F968D919C9165
:10165000B6E02B9F800D911D1124EB81FC81908BB6
:1016600087872689222309F43CCF6AEF640390011F
:10167000659F300D112420583F4F281739070CF073
:1016800030CFCF010190F081E02D0190F081E02D6D
:101690006AE0099526CF0F931F93CF93DF938C01B8
:1016A000D0E0C0E0F801EC0FFD1F6491662341F02B
:1016B00087E496E00E94450A892B11F02196F2CF2B
:1016C000CE01DF91CF911F910F9108950895089554
:1016D00090E080E00895CF93DF93C82FD62F0E942B
:1016E000360A88EC90E00E94380A2E9882E090E05A
:1016F0000E94241CD81729F06D2F82E090E00E94F0
:101700002C1C84EF91E00E94380A0E94360A0E9445
:101710003D0A8C23C817D9F3DF91CF9108950C941B
:10172000241C8F929F92AF92BF920F931F93CF93DF
:10173000DF93CDB7DEB7A1970FB6F894DEBF0FBE2B
:10174000CDBF19A2423008F44AE08E010F5D1F4F51
:10175000842E912CB12CA12CA50194010E946C1C0B
:10176000E62FB901CA01EA3044F5E05DD801EE93F5
:101770008D01232B242B252B79F790E080E0109707
:1017800069F0FD0101900020E9F73197AF014A1B94
:101790005B0BBD0187E496E00E94090AA1960FB693
:1017A000F894DEBF0FBECDBFDF91CF911F910F9197
:1017B000BF90AF909F908F900895E95CD7CFCF9264
:1017C000DF92EF92FF920F93CF93DF93D0E0C0E0D0
:1017D000CE018C589E4F6C01F12CE12CF6018191C9
:1017E0006F0108E028E04CEF50E0843101F108E09F
:1017F00028E044EF50E08331D1F095EF980F08E0F6
:1018000028E04CEE50E0943090F008E028E044EE00
:1018100050E0873061F008E028E04CED50E088307F
:1018200031F0813041F408E028E044ED50E0B701A8
:10183000CE010E941D06F8E0EF0EF11C80E4E816D0
:10184000F10461F62896C036D10511F6ADE6EA2E10
:10185000A1E0FA2EF70181917F0195EF980F08E042
:1018600028E04CEE50E0943060F008E028E044EED0
:1018700050E0873031F0883049F408E028E04CED42
:1018800050E060E170E0CE010E941D062896C0384D
:10189000D10501F7C0E080910401C817A4F48C2F92
:1018A0000C2E000C990B0C9608E028E04CEC50E054
:1018B00070E060E0F3E0880F991FFA95E1F70E946D
:1018C0001D06CF5FE8CFD0E0C0E008E028E044ECA0
:1018D00050E0BE0188E590E00E941D062896C034C5
:1018E000D10599F7E09171010E2E000CFF0BE35921
:1018F000FE4FC08185EF8C0F8430E0F4F12C0C2E6C
:10190000000CDD0B2A978F2D0F2C000C990B8C17D8
:101910009D0784F40C9608E028E04CEB50E068E06A
:1019200070E0E3E0880F991FEA95E1F70E941D0639
:10193000F394E9CF08E028E044EB50E068E270E07F
:1019400080E690E00E941D0688E690E0909357069E
:101950008093560688E290E090935906809358064B
:10196000C0905201D09053010D2C000CEE08FF08DE
:101970004AE0C701B601F7FE0DC06DE287E496E0CC
:101980000E94450A66277727CB016C197D098E09CD
:101990009F094AE00E94910B80917101082E000C72
:1019A000990B0C9608E028E04CEA50E060E170E00A
:1019B00033E0880F991F3A95E1F70E941D06DF91E9
:1019C000CF910F91FF90EF90DF90CF9008950E94FC
:1019D000A31C2F923F924F925F926F927F928F92B1
:1019E0009F92AF92BF92CF92DF92EF92FF920F93AE
:1019F0001F93CF93DF938AE08093120180931101AC
:101A000080915201909153010196909353018093DC
:101A1000520144E7242E41E0342E5CE0D52E65E0EF
:101A2000862E912CA12CB12C74E1472E512C612CC7
:101A3000712CE4E1CE2E10E000E00E94CC1B2AE0E5
:101A400030E040E050E00E943A1C7101E00EF11ECF
:101A5000672B682B692B09F02BC1F701C0820F5F40
:101A60001F4F0830110549F7DA94F8E02F0E311CAA
:101A7000D110E1CF0E94CC1B4B015C010E94CC1B1A
:101A800028E030E040E050E00E943A1C6B01C501C4
:101A9000B4012CE030E040E050E00E943A1C83E0CA
:101AA000660F771F8A95E1F76C587E4F6C0D7D1D90
:101AB00081E0FB0180839CE0892E912CA12CB12C2C
:101AC00028E0C22ED12CE12CF12C0E94CC1BA501C8
:101AD00094010E943A1C7093100160930F010E94C0
:101AE000CC1BA70196010E943A1C70930A016093D7
:101AF000090120910F013091100103E0220F331FE3
:101B00000A95E1F72C583E4FF901E60FF71F808147
:101B10008130D9F21082DCE0CD2ED12CE12CF12CD9
:101B200018E0812E912CA12CB12C0E94CC1BA70176
:101B300096010E943A1C70930801609307010E946D
:101B4000CC1BA50194010E943A1C9B0170930601D5
:101B500060930501E0910701F091080140910F01A8
:101B600050911001E417F50739F4409109015091A3
:101B70000A0164177507C9F2C3E0EE0FFF1FCA958B
:101B8000E1F7EC58FE4FE20FF31F8081843109F436
:101B90001082ACE0CA2ED12CE12CF12CB8E08B2EB7
:101BA000912CA12CB12C0E94CC1BA70196010E9464
:101BB0003A1C70930301609302010E94CC1BA501A3
:101BC00094010E943A1CEB017093010160930001A3
:101BD000209102013091030160910F017091100179
:101BE0004091090150910A012617370719F4C417CB
:101BF000D507C9F2F3E0220F331FFA95E1F7F90197
:101C0000EC58FE4FEC0FFD1FA081A43109F41082A7
:101C100083E0660F771F8A95E1F770931001609358
:101C20000F0193E0440F551F9A95E1F750930A0175
:101C300040930901409107015091080163E0440F6E
:101C4000551F6A95E1F750930801409307014091B1
:101C500005015091060173E0440F551F7A95E1F795
:101C60005093060140930501309303012093020134
:101C7000CE01E3E0880F991FEA95E1F79093010107
:101C80008093000181E08093D501DF91CF911F9176
:101C90000F91FF90EF90DF90CF90BF90AF909F900B
:101CA0008F907F906F905F904F903F902F9008950E
:101CB0000E94CC1BA50194010E943A1C672B682B43
:101CC000692B21F483E1F7018083C9CE0E94CC1BEC
:101CD000A30192010E943A1C6115710581059105CD
:101CE00019F5C0915201D0915301D7FD279633E0E9
:101CF000D595C7953A95E1F7249641F00E94CC1B03
:101D00009E01DD0F440B550B0E943A1C662331F0F7
:101D1000613041F0623019F468E001C06EE0F70113
:101D200060839DCE67E0FBCFF701108298CE1F92B3
:101D30000F920FB60F9211248F939F938091E10021
:101D40009091E100937F9093E10083FF0FC0109288
:101D5000E90091E09093EB001092EC0092E39093F5
:101D6000ED001092F60198E09093F00082FF22C0FF
:101D700093E09093E9009091F200992319F09AE38F
:101D80009093E8009091E701992341F09091E70149
:101D900091509093E701911101C05D9A9091F501E6
:101DA000992341F09091F50191509093F501911193
:101DB00001C0289A84FF18C08091E2008E7E816065
:101DC0008093E2008091E1008F7E8093E10080911A
:101DD000E8018E7E80618093E8019F918F910F9042
:101DE0000FBE0F901F90189580FFF7CF8091E200F3
:101DF0008E7E80618093E2008091E1008E7E8093F0
:101E0000E1008091E8018E7E8160E5CF1F920F9204
:101E10000FB60F921124CF92DF92EF92FF920F93A1
:101E20001F932F933F934F935F936F937F938F9362
:101E30009F93AF93BF93EF93FF93CF93DF93CDB770
:101E4000DEB76C97DEBFCDBF1092E9008091E8004D
:101E500083FF25C068E0CE0145960E941F0982EFEE
:101E60008093E8008D8987FF39C09091E80090FF4A
:101E7000FCCF982F907609F034C19E894F89588DF8
:101E80002F89F88C911131C0803861F58091E6017D
:101E90008093F1001092F1008EEF8093E8006C9631
:101EA0000FB6F894DEBF0FBECDBFDF91CF91FF918B
:101EB000EF91BF91AF919F918F917F916F915F91C2
:101EC0004F913F912F911F910F91FF90EF90DF90D5
:101ED000CF900F900FBE0F901F9018959EEF90938C
:101EE000E800C7CF1092F100D5CF913059F481119D
:101EF000D3CF4130510581F68091E6018D7F8093EB
:101F0000E601CACF933049F48111C6CF4130510563
:101F100019F68091E6018260F2CF953041F480910C
:101F2000E80080FFFCCF20682093E300B5CF963017
:101F300009F0A9C00B8D1C8D22E01092E9001092CF
:101F4000E4011092E301F2122EC01092E20110920D
:101F5000E1010E94EE081F8299E09983FA8291E0E4
:101F60009E8390EA98879AEF99872091E3013091B8
:101F7000E401275F3F4F3C832B838D831092E90060
:101F80001092E4011092E3011093E2010093E10149
:101F900049E050E0BE016F5F7F4F80E00E94C808BB
:101FA0000E94EE0879CF1093E2010093E1010E94B4
:101FB0000508DC0112960D911C910115110509F41B
:101FC00051C1D801ED91FC910480F581E02DBE0155
:101FD0006B5E7F4FC8010995009709F03EC1F8017B
:101FE00000851185EACFF3E0FF120EC08F898823A8
:101FF00009F440C0823061F440E860E185EB9BE089
:102000000E948211811148CF81E28093EB0047CF7B
:10201000813029F440E86BE089EA9BE0F1CF83301E
:1020200099F70E940508DC011296ED90FC908E0154
:102030000F5F1F4F6801E114F10479F0D701ED91B2
:10204000FC910680F781E02DB801C7010995080FC2
:10205000111DF701E084F184EECFD8011C92F60146
:1020600001900020E9F73197BF016C197D0940E02C
:10207000C601C6CF63E97BE0FB01449150E080E8F4
:102080000E94C80809CF973009F4BECF983021F4D8
:1020900081E08093F10000CF993009F0FDCE83708C
:1020A00009F0B2CFE5E2F1E081E031E096E3219181
:1020B000222371F08093E9003093EB00DF01119748
:1020C0002C912093EC009093ED008F5F873079F78F
:1020D0008EE78093EA001092EA008F898093F601E0
:1020E000DBCE8B8D9C8D1092E9001092E401109252
:1020F000E3019093E2018093E101898D811192C007
:102100008E899D89913A49F4813209F07DCF47E06B
:1021100050E068E171E080E0B3CF913209F074CF14
:10212000833269F48F89988DB0E0A0E08093140128
:1021300090931501A0931601B0931701ADCE803294
:1021400069F48091E80082FFFCCF67E088E191E0CC
:102150000E941F098BEF8093E8009ECE823209F027
:102160009BCE8F8980931F01EEEFFFE785919491BD
:102170008B3F9C4D51F1E0E0F8E080911801909187
:102180001901A0911A01B0911B01803B9440A10557
:10219000B105F1F480911F0180FD1AC0EE3F8AE085
:1021A000F80789F587E797E791838083809160003E
:1021B0008093E50188E19BE00FB6F894A8958093A1
:1021C00060000FBE9093600067CEEEEFFAE0D5CFCF
:1021D000808191818737974709F05ECEA8958091DD
:1021E00060008861809360008091E50180936000C9
:1021F000EE3F2AE0F20789F08091FE0A9091FF0AF3
:102200009183808349CE808191818737980751F2ED
:102210009093FF0A8093FE0AC5CF1092FF0A109296
:10222000FE0A3ACE0E940508DC0112960D911C911F
:102230000115110509F4E8CED801ED91FC9101904A
:10224000F081E02DBE016B5E7F4FC80109958111C1
:1022500023CEF80100851185EBCF181619060CF472
:102260001BCED2CEF1E0FF12BECE67E97BE004CFF9
:102270001F920F920FB60F9211242F933F938F93BB
:102280009F93AF93BF938091D9019091DA01A09170
:10229000DB01B091DC013091D80123E0230F2D3711
:1022A00058F50196A11DB11D2093D8018093D90145
:1022B0009093DA01A093DB01B093DC018091DD0102
:1022C0009091DE01A091DF01B091E0010196A11D86
:1022D000B11D8093DD019093DE01A093DF01B093E7
:1022E000E001BF91AF919F918F913F912F910F90FE
:1022F0000FBE0F901F90189526E8230F0296A11D80
:10230000B11DD2CFEF92FF920F931F93CF93DF9324
:10231000F82E192FE62E042F81E0860F880F0E94D9
:102320009A0883E00E949A08CF2DD12FEC0EFD2E43
:10233000F11CCE15DF05B9F007FF13C0FE01849133
:102340000E949A08182F80E00E949A088123219603
:102350008111EFCFDF91CF911F910F91FF90EF90FF
:1023600008958881EDCF81E0F5CF0F931F93CF9330
:10237000DF938C0181E090E00E948F0B80FF32C0E0
:102380008AE090E00E948F0B9FEF980F9E3F50F5E0
:1023900022E330E0D80150963C932E931F9728E318
:1023A00030E052963C932E935197CBE0D0E0D80189
:1023B000ED91FC910190F081E02D682FC801099505
:1023C000CE010E948F0B2196C131D10581F780E0AB
:1023D0000E940E0688EE93E0DF91CF911F910F913E
:1023E0000C94380ADF91CF911F910F9108950497B3
:1023F0000C94B511E7EFF5E01382128288EE93E0BA
:10240000A0E0B0E084839583A683B7838FE291E058
:10241000918380838FEF9FEF95878487E7E4F6E0D1
:10242000138212821186128680E1838710861782BA
:10243000158681E491E0918380838FE491E0958318
:102440008483108A1786128A118A81E0838B148A0A
:10245000858B168A0895CF93DF9300D01F92CDB756
:10246000DEB7789484B5826084BD84B5816084BD14
:1024700085B5826085BD85B5816085BD80916E0022
:10248000816080936E001092810080918100826053
:102490008093810080918100816080938100809190
:1024A00080008160809380008091910082608093A1
:1024B00091008091910081608093910080919000C3
:1024C0008160809390008091C10084608093C100FE
:1024D0008091C10082608093C1008091C1008160C1
:1024E0008093C1008091C30081608093C30080917C
:1024F000C00082608093C0008091C20081608093A0
:10250000C20080917A00846080937A0080917A0082
:10251000826080937A0080917A00816080937A0053
:1025200080917A00806880937A001092F601109270
:10253000E6011092E8018091D70081608093D70076
:1025400080EA8093D80089B5806189BD89B58260B1
:1025500089BD09B400FEFDCF61E070E080E090E04D
:102560000E9451098091D8008F7C80618093D800AF
:102570008091E000807F8093E0008091E1008E7E7A
:102580008093E1008DE08093E200559A209A81ECDF
:1025900080937C0085B1806F85B984B1877E84B9D2
:1025A00084B1876E84B95E9A5F988AB1806D8AB96A
:1025B000769A6E9881B3806F81BB899880B38D7055
:1025C00080BB80E58CBD81E08DBD85E090E00E9400
:1025D000380A5F9A85E090E00E94380A5E985C981D
:1025E000E4EBF6E081EC96E024912EBD00000DB402
:1025F00007FEFDCF31968E179F07B1F75C9A81E8F1
:10260000809364008091650081608093650080E024
:102610000E940E060E943D0A87FF15C05C9885EA5D
:102620008EBD00000DB407FEFDCF5C9A2E982F984A
:102630002D988091640080628093640081E083BF64
:10264000889513BEFCCF0E943D0A82FF16C02E98CB
:102650000E943D0A8478843819F46FEF0E946B0B56
:102660000E943D0A8471843119F460E00E946B0B72
:1026700088EC90E00E94380AE6CF0E94360A82E099
:1026800090E00E948F0B882309F489C03E9A3F9AFC
:1026900081E090E00E948F0B182F147081FF0DC015
:1026A00011112E9820EF3FEF3B832A830E943D0AB1
:1026B00086FF78C02E9A2F9A2D9A82E390E00E948E
:1026C000380A0E943D0A8111F8CF809164008E7F04
:1026D0008093640080917A00806480937A00809176
:1026E0007A0086FDFCCF00917800109179000E945D
:1026F0002C09AB01BC01C801B0E0A0E0DC019927C6
:1027000088278C019D01040F151F261F371FC90143
:10271000B801209164002160209364006115710567
:102720008105910511F00E941B1C81E280935206E5
:1027300047EFC42E41E0D42E52E0A52EB12C68E321
:10274000662E712C80E1282E312CEE24E394F12C9E
:1027500021E1422E2BE0522E3DE2832E3BE0932ED0
:102760002FB7F8948091D9019091DA01A091DB0103
:10277000B091DC012FBF20915306382F321B2091DE
:102780005406222309F443C0309355061092540690
:1027900080E090E0892B21F30E940000D3CF3E9887
:1027A0003F9876CF112339F08A819B81049719F4E1
:1027B0000E94360A2E9881E00E940E0600E128E56C
:1027C00044E056E06A817B8184E190E00E941D062E
:1027D00080E00E940E068FE090E00E94380AAA81F5
:1027E000BB811196BB83AA83599709F05FCF112350
:1027F00019F00E94360A2E9880E991E00E94380A6A
:102800000E94360A87E496E00E94B51156CF4091A7
:102810005206341748F43F5F341708F0B9CF81E00F
:1028200083BF889513BEB4CF11E0109354068093F4
:10283000530680914E0690914F06019690934F0655
:1028400080934E06F60121112FEF0024219321934E
:10285000219321930394D1F71092590610925806B0
:10286000109257061092560680915006809351069A
:102870000E943D0A809350068091130181116DC61C
:102880000E94DF0B8091D70118161CF481508093B1
:10289000D70180E20E94E206811119C080E40E9403
:1028A000E206811114C080E80E94E20681110FC087
:1028B00080E10E94E20681110AC088E00E94E206DF
:1028C000811105C084E00E94E2068823A1F0809176
:1028D000D601811110C08091120182301CF081E07C
:1028E000809312018091110182301CF081E080936D
:1028F00011011092D5018091D50181114DC10E9425
:102900003D0A85FF4AC020910F0130911001121637
:1029100013060CF042C087E49BE090930E01809375
:102920000D018FE39BE090930C0180930B011092BB
:10293000D401C90187709927892B49F5C90103E0A2
:10294000959587950A95E1F7019740910901509176
:102950000A01BA0157FF02C0695F7F4FB3E0759566
:102960006795BA95E1F713E0880F991F1A95E1F77B
:102970008C589E4FFC01E60FF71F808184316CF468
:1029800047705527452B19F08181843134F421504B
:1029900031093093100120930F010E943D0A87FFF7
:1029A00052C02091090130910A01121613060CF051
:1029B0004AC085E39BE090930E0180930D019092B5
:1029C0000C0180920B0181E08093D401C9018770D2
:1029D0009927892B91F540910F0150911001CA015F
:1029E00057FD079663E0959587956A95E1F7B901DC
:1029F000E3E075956795EA95E1F761507109FC018F
:102A0000A3E0EE0FFF1FAA95E1F7EC58FE4FE60F8B
:102A1000F71FE081E431BCF447705527452B69F07E
:102A200053E0880F991F5A95E1F784589E4F860FFF
:102A3000971FDC018C91843134F42150310930939B
:102A40000A01209309010E943D0A86FF4DC0209192
:102A50000F0130911001283531050CF045C083E29B
:102A60009BE090930E0180930D018BE19BE090938E
:102A70000C0180930B0182E08093D401C90187701F
:102A80009927892B59F5C90137FD079643E095959C
:102A900087954A95E1F701964091090150910A0105
:102AA000BA0157FF02C0695F7F4F13E075956795C4
:102AB0001A95E1F703E0880F991F0A95E1F78C5802
:102AC0009E4FFC01E60FF71F808184316CF4477044
:102AD0005527452B19F08181843134F42F5F3F4F06
:102AE0003093100120930F010E943D0A84FF54C0CF
:102AF0002091090130910A01283331050CF04CC0B6
:102B000050920E0140920D0190920C0180920B01A7
:102B100083E08093D401C90187709927892BB1F58F
:102B200060910F0170911001CB0177FD0796B3E022
:102B300095958795BA95E1F7A90137FF02C0495FDE
:102B40005F4FE3E055954795EA95E1F74F5F5F4F9B
:102B5000FC01A3E0EE0FFF1FAA95E1F7EC58FE4F32
:102B6000E40FF51FE081E431BCF467707727672B31
:102B700069F003E0880F991F0A95E1F784589E4F8A
:102B8000840F951FFC018081843134F42F5F3F4F07
:102B900030930A0120930901809173018F5F823085
:102BA00009F407C1809373010E943D0A83FF45C069
:102BB0008091D601811141C0E09171010E2E000C6F
:102BC000FF0B80917201E359FE4F813009F41082AE
:102BD00081E08093D601808195EF980F943008F0C2
:102BE000E9C381508A3009F4A4C3808320910F0186
:102BF000309110018091090190910A0140915B018F
:102C000050915C01452B09F096C32E5F3F4F3093E6
:102C100056012093550102969093580180935701D5
:102C20008091D401082E000C990B90935A01809347
:102C30005901F0925C01E0925B010E943D0A83FF22
:102C40001092D6010E943D0A82FF0FC0809172014E
:102C500081110BC081E080937201809171018F5FBF
:102C6000843009F4B5C3809371010E943D0A82FF4C
:102C700010927201109254011091540113300CF013
:102C8000E4C3B8E01B02C0011124FC01EB5AFE4F63
:102C9000268137812130310509F0B8C3248135817F
:102CA0002115310509F097C3208131812150310967
:102CB00031832083FC01EB5AFE4F208131812D3579
:102CC000310598F4428153814D33510570F473E01E
:102CD000559547957A95E1F7287F2C583E4F240F5C
:102CE000351FF901208124312CF0FC01EB5AFE4FF5
:102CF000B782A682FC01EB5AFE4F408151812091A0
:102D000007013091080142175307DCF0285F3F4F5D
:102D100024173507B4F04281538120910501309189
:102D20000601421753076CF0285F3F4F2417350701
:102D300044F020911201213021F4B782A682109232
:102D40001201FC01EB5AFE4F40815181209102019A
:102D50003091030142175307DCF0285F3F4F2417DF
:102D60003507B4F042815381209100013091010177
:102D7000421753076CF0285F3F4F2417350744F084
:102D800020911101213021F4B782A6821092110105
:102D9000FC01EB5AFE4F628173812FEF3AE047E06E
:102DA0005BE0808191810E94ED061F5F10935401CA
:102DB00063CF10927301F0911201F983F13009F0A1
:102DC00041C1E0910F01F091100120910701309174
:102DD00008018091050190910601E217F307A4F51F
:102DE000121613068CF5A90147705527452B31F5AE
:102DF000D90113E0B595A7951A95E1F71197AC01A4
:102E000097FF02C0495F5F4F63E0559547956A950C
:102E1000E1F773E0AA0FBB1F7A95E1F7AC58BE4FFC
:102E2000A40FB51F4C9144317CF4AC014770552779
:102E3000452B21F011964C91443134F42150310945
:102E400030930801209307016091090170910A01F4
:102E50002091070130910801681779070CF03FC0F5
:102E600018161906E4F5AC0147705527452B91F566
:102E7000A90137FF02C0495F5F4FB3E05595479501
:102E8000BA95E1F78C01A3E015950795AA95E1F7AE
:102E900001501109DA01AA0FBB1FAA0FBB1FAA0F0D
:102EA000BB1FAC58BE4FA00FB11FAC91A431BCF4F6
:102EB000D901A770BB27AB2B69F0A3E0440F551FC6
:102EC000AA95E1F744585E4F400F511FDA014C912B
:102ED00044312CF401979093060180930501809171
:102EE0000501909106012E173F07B4F528353105ED
:102EF0009CF5A90147705527452B41F5D90137FDB0
:102F0000179643E0B595A7954A95E1F71196AC0160
:102F100097FF02C0495F5F4F13E0559547951A959B
:102F2000E1F703E0AA0FBB1F0A95E1F7AC58BE4FCB
:102F3000A40FB51F4C9144317CF4AC014770552768
:102F4000452B21F011964C91443134F42F5F3F4FC3
:102F50003093080120930701409107015091080127
:102F6000861797070CF048C0883391050CF044C0D1
:102F70009C0127703327232BD1F59A0157FF02C0FC
:102F8000295F3F4FB3E035952795BA95E1F7DC010E
:102F900097FD179613E0B595A7951A95E1F78D0162
:102FA0000F5F1F4F1B830A838901A3E0000F111FCE
:102FB000AA95E1F70C581E4FAA81BB810A0F1B1F6F
:102FC000D8011C911431C4F48A0107701127012B18
:102FD00071F003E0220F331F0A95E1F724583E4FAA
:102FE000AA81BB81A20FB31F2C9124312CF401962E
:102FF0009093060180930501CF01089684179507E9
:103000000CF1485F5F4F4E175F07E4F080910501B8
:10301000909106019B01285F3F4F2817390794F0D4
:1030200008968617970774F08091D70181110AC01E
:1030300080910401815080930401811172C181E06B
:103040008093130180911101813009F0ADCD409141
:1030500007015091080120910201309103018091F4
:10306000000190910101BA01685F7F4F62177307F9
:10307000D4F0B901685F7F4F64177507A4F04091E1
:10308000050150910601BA01685F7F4F6817790703
:1030900054F0BC01685F7F4F6417750724F0B98155
:1030A000B13009F481CDE0910F01F0911001E217E8
:1030B000F307A4F5121613068CF5A90147705527DE
:1030C000452B31F5D90113E0B595A7951A95E1F790
:1030D0001197AC0197FF02C0495F5F4F63E05595C0
:1030E00047956A95E1F773E0AA0FBB1F7A95E1F760
:1030F000AC58BE4FA40FB51F4C9144317CF4AC01C9
:1031000047705527452B21F011964C91443134F4EA
:10311000215031093093030120930201609109018C
:1031200070910A012091020130910301681779071B
:103130000CF03FC018161906E4F5AC01477055278E
:10314000452B91F5A90137FF02C0495F5F4FB3E0FE
:1031500055954795BA95E1F78C01A3E0159507952C
:10316000AA95E1F701501109DA01AA0FBB1FAA0FB6
:10317000BB1FAA0FBB1FAC58BE4FA00FB11FAC9115
:10318000A431BCF4D901A770BB27AB2B69F0A3E035
:10319000440F551FAA95E1F744585E4F400F511F49
:1031A000DA014C9144312CF4019790930101809302
:1031B000000180910001909101012E173F07B4F5A5
:1031C000283531059CF5A90147705527452B41F558
:1031D000D90137FD179643E0B595A7954A95E1F7D4
:1031E0001196AC0197FF02C0495F5F4F13E0559500
:1031F00047951A95E1F703E0AA0FBB1F0A95E1F77F
:10320000AC58BE4FA40FB51F4C9144317CF4AC01B7
:1032100047705527452B21F011964C91443134F4D9
:103220002F5F3F4F30930301209302014091020131
:1032300050910301861797070CF048C08833910519
:103240000CF044C09C0127703327232BD1F59A0141
:1032500057FF02C0295F3F4FB3E035952795BA95D8
:10326000E1F7DC0197FD179613E0B595A7951A9540
:10327000E1F78D010F5F1F4F1B830A838901A3E0D4
:10328000000F111FAA95E1F70C581E4FAA81BB81B0
:103290000A0F1B1FD8011C911431C4F48A01077056
:1032A0001127012B71F0A3E0220F331FAA95E1F73C
:1032B00024583E4FAA81BB81A20FB31F2C91243109
:1032C0002CF401969093010180930001CF010896A0
:1032D000841795070CF468CC485F5F4F4E175F0763
:1032E0000CF462CC80910001909101019B01285F58
:1032F0003F4F281739070CF457CC089686179707C5
:103300000CF452CC8091D70181114ECC80910401F4
:10331000815080930401811108C081E080931301E2
:1033200043CC8EE18093D7018DCE8EE18093D7017F
:103330003BCC10825BCC4091630150916401452BE2
:10334000C9F42E5F3F4F30935E0120935D010296DA
:103350009093600180935F018091D401082E000C4E
:10336000990B9093620180936101F0926401E09265
:10337000630163CC40916B0150916C01452B09F0C6
:103380005CCC2E5F3F4F309366012093650102961F
:1033900090936801809367018091D401082E000CFE
:1033A000990B90936A0180936901F0926C01E0920D
:1033B0006B0143CC873029F4108284E080930401B0
:1033C0003CCC883009F039CC10820E94E90C35CC15
:1033D000109271014ACC2130310539F422813381B8
:1033E000215031093383228365CC2230310529F401
:1033F000208131812F5F3F4F5BCC2330310509F0B5
:1034000059CC228133812F5F3F4FECCFA90142502D
:1034100051094830510508F0C8CC2F5F3F4F2A3082
:10342000310581F037832683FC01EB5AFE4F628120
:10343000738108E028E047EF5AE0808191810E9483
:103440001D06B3CC17821682EFCF20910F01309169
:103450001001C901049697FD079663E0959587953D
:103460006A95E1F74091090150910A019A012C5F98
:103470003F4F37FF02C0295F3F4F43E03595279507
:103480004A95E1F753E0880F991F5A95E1F78C5858
:103490009E4FFC01E20FF31F80818130E1F50E9415
:1034A000E90C20910B0130910C0140910D015091DC
:1034B0000E016091090170910A0180910F019091B4
:1034C00010010E94ED0680911201181674F46091AB
:1034D00005017091060125EE3AE04DEE5AE080912B
:1034E0000701909108010E94ED06809111011816C4
:1034F00074F4609100017091010125EE3AE04DEE07
:103500005AE080910201909103010E94ED0680E053
:103510000E940E063DC99BEF980F9E3008F0C1CF68
:1035200090916D01911104C080936D011082B9CF0B
:1035300090916E01911103C080936E01F7CF90912D
:103540006F01911103C080936F01F0CF90917001D2
:103550009111A7CF80937001E9CF813009F05BC052
:1035600008E210E010935706009356063092590671
:10357000209258068BED9AE00E944B0B0E94DF0BC5
:1035800020910B0130910C0140910D0150910E01E1
:103590006091090170910A0180910F0190911001D1
:1035A0000E94ED0680911201181674F460910501D5
:1035B0007091060125EE3AE04DEE5AE08091070148
:1035C000909108010E94ED0680911101181674F483
:1035D000609100017091010125EE3AE04DEE5AE054
:1035E00080910201909103010E94ED060E943D0A24
:1035F00083FF0AC08091D601811106C081E08093CB
:10360000D60182E0809313010E943D0A83FD7FCFA3
:103610001092D6017CCF823009F079CF00E420E807
:103620004BED56E070E060E090E080E00E941D0607
:1036300020E630E030935706209356061092590644
:103640001092580686ED96E00E944B0B709257063A
:103650006092560680E290E0909359068093580657
:103660008EEC96E00E944B0B7092570660925606C5
:10367000A0E3B0E0B0935906A093580681EC96E021
:103680000E944B0B0E943D0A83FFBECF8091D60162
:103690008111BACF1093D601109213010E94E90C48
:1036A000E0E4F0E0F0931001E0930F0100E210E09D
:1036B00010930A01009309011092530110925201D4
:1036C0001092D40184E0809304011092D7011093EA
:1036D00008010093070110930601009305018CE394
:1036E00080931201109273018EE080936D0110920D
:1036F0006E0110926F01109270010E94E90C84CF4C
:103700008F929F92AF92BF92CF92DF92EF92FF92F1
:10371000CF93DF93EC01688179818A819B81611568
:1037200071058105910521F464E279ED8BE597E05F
:103730002DE133EF41E050E00E943A1C49015A016B
:103740009B01AC01A7EAB1E40E94591C6B017C010A
:10375000ACEEB4EFA50194010E94671CC60ED71E03
:10376000E81EF91EF7FE06C081E0C81AD108E1087C
:1037700080E8F80AC882D982EA82FB82C701B601D2
:103780009F77DF91CF91FF90EF90DF90CF90BF9028
:10379000AF909F908F9008958F929F92AF92BF921B
:1037A000CF92DF92EF92FF92609120017091210100
:1037B0008091220190912301611571058105910588
:1037C00021F464E279ED8BE597E02DE133EF41E000
:1037D00050E00E943A1C49015A019B01AC01A7EA42
:1037E000B1E40E94591C6B017C01ACEEB4EFA50161
:1037F00094010E94671CC60ED71EE81EF91EF7FE34
:1038000006C081E0C81AD108E10880E8F80AC09231
:103810002001D0922101E0922201F0922301C70100
:10382000B6019F77FF90EF90DF90CF90BF90AF9061
:103830009F908F9008956093200170932101809351
:103840002201909323010895F999FECF92BD81BD85
:10385000F89A992780B50895262FF999FECF1FBAB7
:1038600092BD81BD20BD0FB6F894FA9AF99A0FBEA9
:1038700001960895052E97FB1EF400940E94511C9A
:1038800057FD07D00E946C1C07FC03D04EF40C942B
:10389000511C50954095309521953F4F4F4F5F4FAC
:1038A000089590958095709561957F4F8F4F9F4FAC
:1038B00008950E948E1CA59F900DB49F900DA49F0B
:1038C000800D911D11240895B7FF0C94591C0E947E
:1038D000591C821B930B0895A1E21A2EAA1BBB1B35
:1038E000FD010DC0AA1FBB1FEE1FFF1FA217B307CC
:1038F000E407F50720F0A21BB30BE40BF50B661FE2
:10390000771F881F991F1A9469F7609570958095A5
:1039100090959B01AC01BD01CF010895A29FB0011C
:10392000B39FC001A39F700D811D1124911DB29FF3
:10393000700D811D1124911D0895EE0FFF1F05903C
:10394000F491E02D099481E090E0F8940C94A81C87
:04395000F894FFCF19
:1039540020002000042000200020002D0B110B402B
:10396400001E1E02FFFFFFFF00E100000000000038
:103974000100000000C18081000000000000001967
:103984000884093A082F0880083E085C08000000F3
:1039940000450A090A680B670BB511FCFF0000F724
:0239A400110010
:00000001FF
